{
  "contractName": "Keybook",
  "abi": [
    {
      "constant": true,
      "inputs": [
        {
          "name": "",
          "type": "address"
        }
      ],
      "name": "addressIsAVerifier",
      "outputs": [
        {
          "name": "",
          "type": "bool"
        }
      ],
      "payable": false,
      "stateMutability": "view",
      "type": "function"
    },
    {
      "constant": false,
      "inputs": [],
      "name": "renounceOwnership",
      "outputs": [],
      "payable": false,
      "stateMutability": "nonpayable",
      "type": "function"
    },
    {
      "constant": true,
      "inputs": [],
      "name": "owner",
      "outputs": [
        {
          "name": "",
          "type": "address"
        }
      ],
      "payable": false,
      "stateMutability": "view",
      "type": "function"
    },
    {
      "constant": true,
      "inputs": [],
      "name": "isOwner",
      "outputs": [
        {
          "name": "",
          "type": "bool"
        }
      ],
      "payable": false,
      "stateMutability": "view",
      "type": "function"
    },
    {
      "constant": false,
      "inputs": [
        {
          "name": "newOwner",
          "type": "address"
        }
      ],
      "name": "transferOwnership",
      "outputs": [],
      "payable": false,
      "stateMutability": "nonpayable",
      "type": "function"
    },
    {
      "anonymous": false,
      "inputs": [
        {
          "indexed": false,
          "name": "userAddress",
          "type": "address"
        },
        {
          "indexed": false,
          "name": "email",
          "type": "string"
        }
      ],
      "name": "NewEmailVerificationRequest",
      "type": "event"
    },
    {
      "anonymous": false,
      "inputs": [
        {
          "indexed": false,
          "name": "userAddress",
          "type": "address"
        },
        {
          "indexed": false,
          "name": "telegram",
          "type": "string"
        }
      ],
      "name": "NewTelegramVerificationRequest",
      "type": "event"
    },
    {
      "anonymous": false,
      "inputs": [
        {
          "indexed": false,
          "name": "userAddress",
          "type": "address"
        },
        {
          "indexed": false,
          "name": "email",
          "type": "string"
        },
        {
          "indexed": false,
          "name": "name",
          "type": "string"
        },
        {
          "indexed": false,
          "name": "telegram",
          "type": "string"
        }
      ],
      "name": "UserDataUpdated",
      "type": "event"
    },
    {
      "anonymous": false,
      "inputs": [
        {
          "indexed": true,
          "name": "previousOwner",
          "type": "address"
        },
        {
          "indexed": true,
          "name": "newOwner",
          "type": "address"
        }
      ],
      "name": "OwnershipTransferred",
      "type": "event"
    },
    {
      "constant": false,
      "inputs": [],
      "name": "requestEmailVerification",
      "outputs": [],
      "payable": false,
      "stateMutability": "nonpayable",
      "type": "function"
    },
    {
      "constant": false,
      "inputs": [],
      "name": "requestTelegramVerification",
      "outputs": [],
      "payable": false,
      "stateMutability": "nonpayable",
      "type": "function"
    },
    {
      "constant": true,
      "inputs": [
        {
          "name": "userAddress",
          "type": "address"
        }
      ],
      "name": "getEmailForUser",
      "outputs": [
        {
          "name": "",
          "type": "string"
        }
      ],
      "payable": false,
      "stateMutability": "view",
      "type": "function"
    },
    {
      "constant": true,
      "inputs": [
        {
          "name": "userAddress",
          "type": "address"
        }
      ],
      "name": "getTelegramForUser",
      "outputs": [
        {
          "name": "",
          "type": "string"
        }
      ],
      "payable": false,
      "stateMutability": "view",
      "type": "function"
    },
    {
      "constant": true,
      "inputs": [
        {
          "name": "userAddress",
          "type": "address"
        }
      ],
      "name": "getNameForUser",
      "outputs": [
        {
          "name": "",
          "type": "string"
        }
      ],
      "payable": false,
      "stateMutability": "view",
      "type": "function"
    },
    {
      "constant": false,
      "inputs": [
        {
          "name": "email",
          "type": "string"
        },
        {
          "name": "name",
          "type": "string"
        },
        {
          "name": "telegram",
          "type": "string"
        }
      ],
      "name": "makeUser",
      "outputs": [],
      "payable": false,
      "stateMutability": "nonpayable",
      "type": "function"
    },
    {
      "constant": false,
      "inputs": [
        {
          "name": "userAddress",
          "type": "address"
        },
        {
          "name": "_sig",
          "type": "bytes"
        }
      ],
      "name": "verifyEmail",
      "outputs": [],
      "payable": false,
      "stateMutability": "nonpayable",
      "type": "function"
    },
    {
      "constant": false,
      "inputs": [
        {
          "name": "userAddress",
          "type": "address"
        },
        {
          "name": "_sig",
          "type": "bytes"
        }
      ],
      "name": "verifyTelegram",
      "outputs": [],
      "payable": false,
      "stateMutability": "nonpayable",
      "type": "function"
    },
    {
      "constant": true,
      "inputs": [
        {
          "name": "userAddress",
          "type": "address"
        }
      ],
      "name": "getNumberOfEmailVerifications",
      "outputs": [
        {
          "name": "",
          "type": "uint256"
        }
      ],
      "payable": false,
      "stateMutability": "view",
      "type": "function"
    },
    {
      "constant": true,
      "inputs": [
        {
          "name": "userAddress",
          "type": "address"
        }
      ],
      "name": "getNumberOfTelegramVerifications",
      "outputs": [
        {
          "name": "",
          "type": "uint256"
        }
      ],
      "payable": false,
      "stateMutability": "view",
      "type": "function"
    },
    {
      "constant": false,
      "inputs": [
        {
          "name": "newVerifier",
          "type": "address"
        }
      ],
      "name": "addVerifier",
      "outputs": [],
      "payable": false,
      "stateMutability": "nonpayable",
      "type": "function"
    },
    {
      "constant": false,
      "inputs": [
        {
          "name": "verifierToRemove",
          "type": "address"
        }
      ],
      "name": "removeVerifier",
      "outputs": [],
      "payable": false,
      "stateMutability": "nonpayable",
      "type": "function"
    }
  ],
  "bytecode": "0x6080604052336000806101000a81548173ffffffffffffffffffffffffffffffffffffffff021916908373ffffffffffffffffffffffffffffffffffffffff1602179055506000809054906101000a900473ffffffffffffffffffffffffffffffffffffffff1673ffffffffffffffffffffffffffffffffffffffff16600073ffffffffffffffffffffffffffffffffffffffff167f8be0079c531659141344cd1fd0a4f28419497f9722a3daafe3b4186f6b6457e060405160405180910390a3611f5c806100cf6000396000f3fe608060405234801561001057600080fd5b5060043610610128576000357c010000000000000000000000000000000000000000000000000000000090048063715018a6116100bf5780638f32d59b1161008e5780638f32d59b1461086d5780639000b3d61461088f578063c30cd4a6146108d3578063ca2dfd0a146108dd578063f2fde38b1461092157610128565b8063715018a614610681578063769fb3551461068b57806377f91d03146107485780638da5cb5b1461082357610128565b80632629aecf116100fb5780632629aecf1461032b5780633e3fe94d1461051457806346fc0ca01461056c57806348579054146105c457610128565b8063071222c51461012d57806309d45345146101ea5780631bcfd782146102c55780631c302e5a146102cf575b600080fd5b61016f6004803603602081101561014357600080fd5b81019080803573ffffffffffffffffffffffffffffffffffffffff169060200190929190505050610965565b6040518080602001828103825283818151815260200191508051906020019080838360005b838110156101af578082015181840152602081019050610194565b50505050905090810190601f1680156101dc5780820380516001836020036101000a031916815260200191505b509250505060405180910390f35b6102c36004803603604081101561020057600080fd5b81019080803573ffffffffffffffffffffffffffffffffffffffff1690602001909291908035906020019064010000000081111561023d57600080fd5b82018360208201111561024f57600080fd5b8035906020019184600183028401116401000000008311171561027157600080fd5b91908080601f016020809104026020016040519081016040528093929190818152602001838380828437600081840152601f19601f820116905080830192505050505050509192919290505050610a49565b005b6102cd610c4d565b005b610311600480360360208110156102e557600080fd5b81019080803573ffffffffffffffffffffffffffffffffffffffff169060200190929190505050610e0f565b604051808215151515815260200191505060405180910390f35b6105126004803603606081101561034157600080fd5b810190808035906020019064010000000081111561035e57600080fd5b82018360208201111561037057600080fd5b8035906020019184600183028401116401000000008311171561039257600080fd5b91908080601f016020809104026020016040519081016040528093929190818152602001838380828437600081840152601f19601f820116905080830192505050505050509192919290803590602001906401000000008111156103f557600080fd5b82018360208201111561040757600080fd5b8035906020019184600183028401116401000000008311171561042957600080fd5b91908080601f016020809104026020016040519081016040528093929190818152602001838380828437600081840152601f19601f8201169050808301925050505050505091929192908035906020019064010000000081111561048c57600080fd5b82018360208201111561049e57600080fd5b803590602001918460018302840111640100000000831117156104c057600080fd5b91908080601f016020809104026020016040519081016040528093929190818152602001838380828437600081840152601f19601f820116905080830192505050505050509192919290505050610e2f565b005b6105566004803603602081101561052a57600080fd5b81019080803573ffffffffffffffffffffffffffffffffffffffff16906020019092919050505061129e565b6040518082815260200191505060405180910390f35b6105ae6004803603602081101561058257600080fd5b81019080803573ffffffffffffffffffffffffffffffffffffffff1690602001909291905050506112f2565b6040518082815260200191505060405180910390f35b610606600480360360208110156105da57600080fd5b81019080803573ffffffffffffffffffffffffffffffffffffffff169060200190929190505050611346565b6040518080602001828103825283818151815260200191508051906020019080838360005b8381101561064657808201518184015260208101905061062b565b50505050905090810190601f1680156106735780820380516001836020036101000a031916815260200191505b509250505060405180910390f35b61068961142a565b005b6106cd600480360360208110156106a157600080fd5b81019080803573ffffffffffffffffffffffffffffffffffffffff1690602001909291905050506114fc565b6040518080602001828103825283818151815260200191508051906020019080838360005b8381101561070d5780820151818401526020810190506106f2565b50505050905090810190601f16801561073a5780820380516001836020036101000a031916815260200191505b509250505060405180910390f35b6108216004803603604081101561075e57600080fd5b81019080803573ffffffffffffffffffffffffffffffffffffffff1690602001909291908035906020019064010000000081111561079b57600080fd5b8201836020820111156107ad57600080fd5b803590602001918460018302840111640100000000831117156107cf57600080fd5b91908080601f016020809104026020016040519081016040528093929190818152602001838380828437600081840152601f19601f8201169050808301925050505050505091929192905050506115e0565b005b61082b6117e4565b604051808273ffffffffffffffffffffffffffffffffffffffff1673ffffffffffffffffffffffffffffffffffffffff16815260200191505060405180910390f35b61087561180d565b604051808215151515815260200191505060405180910390f35b6108d1600480360360208110156108a557600080fd5b81019080803573ffffffffffffffffffffffffffffffffffffffff169060200190929190505050611864565b005b6108db6118d1565b005b61091f600480360360208110156108f357600080fd5b81019080803573ffffffffffffffffffffffffffffffffffffffff169060200190929190505050611a93565b005b6109636004803603602081101561093757600080fd5b81019080803573ffffffffffffffffffffffffffffffffffffffff169060200190929190505050611b01565b005b6060600260008373ffffffffffffffffffffffffffffffffffffffff1673ffffffffffffffffffffffffffffffffffffffff1681526020019081526020016000206000018054600181600116156101000203166002900480601f016020809104026020016040519081016040528092919081815260200182805460018160011615610100020316600290048015610a3d5780601f10610a1257610100808354040283529160200191610a3d565b820191906000526020600020905b815481529060010190602001808311610a2057829003601f168201915b50505050509050919050565b6000600260008473ffffffffffffffffffffffffffffffffffffffff1673ffffffffffffffffffffffffffffffffffffffff168152602001908152602001600020905060008382600001604051602001808373ffffffffffffffffffffffffffffffffffffffff1673ffffffffffffffffffffffffffffffffffffffff166c01000000000000000000000000028152601401807f656d61696c3a200000000000000000000000000000000000000000000000000081525060070182805460018160011615610100020316600290048015610b5a5780601f10610b38576101008083540402835291820191610b5a565b820191906000526020600020905b815481529060010190602001808311610b46575b5050925050506040516020818303038152906040528051906020012090506000610b848285611b20565b9050600160008273ffffffffffffffffffffffffffffffffffffffff1673ffffffffffffffffffffffffffffffffffffffff16815260200190815260200160002060009054906101000a900460ff161515610bde57600080fd5b826003018190806001815401808255809150509060018203906000526020600020016000909192909190916101000a81548173ffffffffffffffffffffffffffffffffffffffff021916908373ffffffffffffffffffffffffffffffffffffffff160217905550505050505050565b6060600260003373ffffffffffffffffffffffffffffffffffffffff1673ffffffffffffffffffffffffffffffffffffffff1681526020019081526020016000206000018054600181600116156101000203166002900480601f016020809104026020016040519081016040528092919081815260200182805460018160011615610100020316600290048015610d255780601f10610cfa57610100808354040283529160200191610d25565b820191906000526020600020905b815481529060010190602001808311610d0857829003601f168201915b5050505050905060008151111515610d3c57600080fd5b7f45cd33169b48a5f565cac8e41ffb5b5b3330736e38f68c4b57fb1435d48436ba3382604051808373ffffffffffffffffffffffffffffffffffffffff1673ffffffffffffffffffffffffffffffffffffffff16815260200180602001828103825283818151815260200191508051906020019080838360005b83811015610dd1578082015181840152602081019050610db6565b50505050905090810190601f168015610dfe5780820380516001836020036101000a031916815260200191505b50935050505060405180910390a150565b60016020528060005260406000206000915054906101000a900460ff1681565b6060610e39611d8e565b60a06040519081016040528086815260200185815260200184815260200183815260200183815250905080600260003373ffffffffffffffffffffffffffffffffffffffff1673ffffffffffffffffffffffffffffffffffffffff1681526020019081526020016000206000820151816000019080519060200190610ebf929190611dbe565b506020820151816001019080519060200190610edc929190611dbe565b506040820151816002019080519060200190610ef9929190611dbe565b506060820151816003019080519060200190610f16929190611e3e565b506080820151816004019080519060200190610f33929190611e3e565b509050507fdc790cad978329f8c2cb347cff2b8994d6bb8a360c84cac2dd2689bd71a81aec33868686604051808573ffffffffffffffffffffffffffffffffffffffff1673ffffffffffffffffffffffffffffffffffffffff168152602001806020018060200180602001848103845287818151815260200191508051906020019080838360005b83811015610fd6578082015181840152602081019050610fbb565b50505050905090810190601f1680156110035780820380516001836020036101000a031916815260200191505b50848103835286818151815260200191508051906020019080838360005b8381101561103c578082015181840152602081019050611021565b50505050905090810190601f1680156110695780820380516001836020036101000a031916815260200191505b50848103825285818151815260200191508051906020019080838360005b838110156110a2578082015181840152602081019050611087565b50505050905090810190601f1680156110cf5780820380516001836020036101000a031916815260200191505b5097505050505050505060405180910390a16000855111156111bc577f45cd33169b48a5f565cac8e41ffb5b5b3330736e38f68c4b57fb1435d48436ba3386604051808373ffffffffffffffffffffffffffffffffffffffff1673ffffffffffffffffffffffffffffffffffffffff16815260200180602001828103825283818151815260200191508051906020019080838360005b83811015611180578082015181840152602081019050611165565b50505050905090810190601f1680156111ad5780820380516001836020036101000a031916815260200191505b50935050505060405180910390a15b600083511115611297577f9f92d7ea015cea4a0832a14786b4d4de451aae5377f5774be2f14ff208c9a2583384604051808373ffffffffffffffffffffffffffffffffffffffff1673ffffffffffffffffffffffffffffffffffffffff16815260200180602001828103825283818151815260200191508051906020019080838360005b8381101561125b578082015181840152602081019050611240565b50505050905090810190601f1680156112885780820380516001836020036101000a031916815260200191505b50935050505060405180910390a15b5050505050565b600080600260008473ffffffffffffffffffffffffffffffffffffffff1673ffffffffffffffffffffffffffffffffffffffff16815260200190815260200160002090508060040180549050915050919050565b600080600260008473ffffffffffffffffffffffffffffffffffffffff1673ffffffffffffffffffffffffffffffffffffffff16815260200190815260200160002090508060030180549050915050919050565b6060600260008373ffffffffffffffffffffffffffffffffffffffff1673ffffffffffffffffffffffffffffffffffffffff1681526020019081526020016000206001018054600181600116156101000203166002900480601f01602080910402602001604051908101604052809291908181526020018280546001816001161561010002031660029004801561141e5780601f106113f35761010080835404028352916020019161141e565b820191906000526020600020905b81548152906001019060200180831161140157829003601f168201915b50505050509050919050565b61143261180d565b151561143d57600080fd5b600073ffffffffffffffffffffffffffffffffffffffff166000809054906101000a900473ffffffffffffffffffffffffffffffffffffffff1673ffffffffffffffffffffffffffffffffffffffff167f8be0079c531659141344cd1fd0a4f28419497f9722a3daafe3b4186f6b6457e060405160405180910390a360008060006101000a81548173ffffffffffffffffffffffffffffffffffffffff021916908373ffffffffffffffffffffffffffffffffffffffff160217905550565b6060600260008373ffffffffffffffffffffffffffffffffffffffff1673ffffffffffffffffffffffffffffffffffffffff1681526020019081526020016000206002018054600181600116156101000203166002900480601f0160208091040260200160405190810160405280929190818152602001828054600181600116156101000203166002900480156115d45780601f106115a9576101008083540402835291602001916115d4565b820191906000526020600020905b8154815290600101906020018083116115b757829003601f168201915b50505050509050919050565b6000600260008473ffffffffffffffffffffffffffffffffffffffff1673ffffffffffffffffffffffffffffffffffffffff168152602001908152602001600020905060008382600201604051602001808373ffffffffffffffffffffffffffffffffffffffff1673ffffffffffffffffffffffffffffffffffffffff166c01000000000000000000000000028152601401807f74656c656772616d3a2000000000000000000000000000000000000000000000815250600a01828054600181600116156101000203166002900480156116f15780601f106116cf5761010080835404028352918201916116f1565b820191906000526020600020905b8154815290600101906020018083116116dd575b505092505050604051602081830303815290604052805190602001209050600061171b8285611b20565b9050600160008273ffffffffffffffffffffffffffffffffffffffff1673ffffffffffffffffffffffffffffffffffffffff16815260200190815260200160002060009054906101000a900460ff16151561177557600080fd5b826004018190806001815401808255809150509060018203906000526020600020016000909192909190916101000a81548173ffffffffffffffffffffffffffffffffffffffff021916908373ffffffffffffffffffffffffffffffffffffffff160217905550505050505050565b60008060009054906101000a900473ffffffffffffffffffffffffffffffffffffffff16905090565b60008060009054906101000a900473ffffffffffffffffffffffffffffffffffffffff1673ffffffffffffffffffffffffffffffffffffffff163373ffffffffffffffffffffffffffffffffffffffff1614905090565b61186c61180d565b151561187757600080fd5b60018060008373ffffffffffffffffffffffffffffffffffffffff1673ffffffffffffffffffffffffffffffffffffffff16815260200190815260200160002060006101000a81548160ff02191690831515021790555050565b6060600260003373ffffffffffffffffffffffffffffffffffffffff1673ffffffffffffffffffffffffffffffffffffffff1681526020019081526020016000206002018054600181600116156101000203166002900480601f0160208091040260200160405190810160405280929190818152602001828054600181600116156101000203166002900480156119a95780601f1061197e576101008083540402835291602001916119a9565b820191906000526020600020905b81548152906001019060200180831161198c57829003601f168201915b50505050509050600081511115156119c057600080fd5b7f9f92d7ea015cea4a0832a14786b4d4de451aae5377f5774be2f14ff208c9a2583382604051808373ffffffffffffffffffffffffffffffffffffffff1673ffffffffffffffffffffffffffffffffffffffff16815260200180602001828103825283818151815260200191508051906020019080838360005b83811015611a55578082015181840152602081019050611a3a565b50505050905090810190601f168015611a825780820380516001836020036101000a031916815260200191505b50935050505060405180910390a150565b611a9b61180d565b1515611aa657600080fd5b6000600160008373ffffffffffffffffffffffffffffffffffffffff1673ffffffffffffffffffffffffffffffffffffffff16815260200190815260200160002060006101000a81548160ff02191690831515021790555050565b611b0961180d565b1515611b1457600080fd5b611b1d81611c94565b50565b60008260405160200180807f19457468657265756d205369676e6564204d6573736167653a0a333200000000815250601c01828152602001915050604051602081830303815290604052805190602001209250600080600060418551141515611b8f5760009350505050611c8e565b6020850151925060408501519150606085015160001a9050601b8160ff161015611bba57601b810190505b601b8160ff1614158015611bd25750601c8160ff1614155b15611be35760009350505050611c8e565b60027fffffffff00000000ffffffffffffffffbce6faada7179e84f3b9cac2fc632551811515611c0f57fe5b048260019004101515611c2157600080fd5b60018682858560405160008152602001604052604051808581526020018460ff1660ff1681526020018381526020018281526020019450505050506020604051602081039080840390855afa158015611c7e573d6000803e3d6000fd5b5050506020604051035193505050505b92915050565b600073ffffffffffffffffffffffffffffffffffffffff168173ffffffffffffffffffffffffffffffffffffffff1614151515611cd057600080fd5b8073ffffffffffffffffffffffffffffffffffffffff166000809054906101000a900473ffffffffffffffffffffffffffffffffffffffff1673ffffffffffffffffffffffffffffffffffffffff167f8be0079c531659141344cd1fd0a4f28419497f9722a3daafe3b4186f6b6457e060405160405180910390a3806000806101000a81548173ffffffffffffffffffffffffffffffffffffffff021916908373ffffffffffffffffffffffffffffffffffffffff16021790555050565b60a06040519081016040528060608152602001606081526020016060815260200160608152602001606081525090565b828054600181600116156101000203166002900490600052602060002090601f016020900481019282601f10611dff57805160ff1916838001178555611e2d565b82800160010185558215611e2d579182015b82811115611e2c578251825591602001919060010190611e11565b5b509050611e3a9190611ec8565b5090565b828054828255906000526020600020908101928215611eb7579160200282015b82811115611eb65782518260006101000a81548173ffffffffffffffffffffffffffffffffffffffff021916908373ffffffffffffffffffffffffffffffffffffffff16021790555091602001919060010190611e5e565b5b509050611ec49190611eed565b5090565b611eea91905b80821115611ee6576000816000905550600101611ece565b5090565b90565b611f2d91905b80821115611f2957600081816101000a81549073ffffffffffffffffffffffffffffffffffffffff021916905550600101611ef3565b5090565b9056fea165627a7a723058202aceb8709128cd7a4c742784e5ed381ab0fff13c3f908d1f5a656149f0a3db720029",
  "source": "pragma solidity ^0.5.4;\n\nimport {Ownable} from \"./Ownable.sol\";\n\n\ncontract Keybook is Ownable {\n\n    mapping(address => bool) public addressIsAVerifier;\n\n    struct User {\n        string email;\n        string name;\n        /* string phoneNumber; */\n        /* string pgpKey; */\n        /* string twitter; */\n        /* string website; */\n        string telegram;\n        address[] emailVerifiedByAddresses;\n        address[] telegramVerifiedByAddresses;\n    }\n\n    event NewEmailVerificationRequest(\n        address userAddress,\n        string email\n    );\n\n    event NewTelegramVerificationRequest(\n        address userAddress,\n        string telegram\n    );\n\n    event UserDataUpdated(\n        address userAddress,\n        string email,\n        string name,\n        string telegram\n    );\n\n\n    mapping(address => User) addressToUser;\n\n\n    function requestEmailVerification() public {\n       string memory email = addressToUser[msg.sender].email;\n       require(bytes(email).length > 0);\n       emit NewEmailVerificationRequest(msg.sender, email);\n    }\n\n    function requestTelegramVerification() public {\n       string memory telegram = addressToUser[msg.sender].telegram;\n       require(bytes(telegram).length > 0);\n       emit NewTelegramVerificationRequest(msg.sender, telegram);\n    }\n\n    function getEmailForUser(address userAddress) public view returns (string memory) {\n        return addressToUser[userAddress].email;\n    }\n    function getTelegramForUser(address userAddress) public view returns (string memory) {\n        return addressToUser[userAddress].telegram;\n    }\n    function getNameForUser(address userAddress) public view returns (string memory) {\n        return addressToUser[userAddress].name;\n    }\n    /* function getPhoneForUser(address userAddress) public view returns (string memory) { */\n    /*     return addressToUser[userAddress].phoneNumber; */\n    /* } */\n    /* function getPgpKeyForUser(address userAddress) public view returns (string memory) { */\n    /*     return addressToUser[userAddress].pgpKey; */\n    /* } */\n    /* function getTwitterForUser(address userAddress) public view returns (string memory) { */\n    /*     return addressToUser[userAddress].twitter; */\n    /* } */\n    /* function getWebsiteForUser(address userAddress) public view returns (string memory) { */\n    /*     return addressToUser[userAddress].website; */\n    /* } */\n\n    function makeUser(string memory email,\n                      string memory name,\n                      /* string memory phoneNumber, */\n                      /* string memory pgpKey, */\n                      /* string memory twitter, */\n                      /* string memory website, */\n                      string memory telegram) public {\n        address[] memory emptyArray;\n        User memory newUser = User(email, name, telegram, emptyArray, emptyArray);\n        addressToUser[msg.sender] = newUser;\n        emit UserDataUpdated(msg.sender, email, name, telegram);\n        if (bytes(email).length > 0){\n            emit NewEmailVerificationRequest(msg.sender, email);\n        }\n        if (bytes(telegram).length > 0){\n            emit NewTelegramVerificationRequest(msg.sender, telegram);\n        }\n    }\n\n\n\n    uint256 constant N  = 115792089210356248762697446949407573529996955224135760342422259061068512044369;\n    //This is the curve order for spec256k\n\n    function recover(bytes32 hash, bytes memory sig) internal pure returns(address){\n        hash = keccak256(abi.encodePacked(\"\\x19Ethereum Signed Message:\\n32\", hash));\n\n        bytes32 r;\n        bytes32 s;\n        uint8 v;\n\n        if (sig.length != 65) return address(0);\n\n        assembly {\n            r := mload(add(sig, 32))\n            s := mload(add(sig, 64))\n            v := byte(0, mload(add(sig, 96)))\n        }\n\n        if (v < 27) {\n          v += 27;\n        }\n\n        if (v != 27 && v != 28) return address(0);\n\n        require(uint(s) < N/2); //We define that the lower s version of the signature is the valid one\n\n        return ecrecover(hash, v, r, s);\n    }\n\n\n    function verifyEmail(address userAddress, bytes memory _sig) public {\n        User storage verifyingUser = addressToUser[userAddress];\n        bytes32 dataToSign = keccak256(abi.encodePacked(userAddress, \"email: \", verifyingUser.email));\n        address verifier = recover(dataToSign, _sig);\n        require(addressIsAVerifier[verifier]);\n        verifyingUser.emailVerifiedByAddresses.push(verifier);\n    }\n\n    function verifyTelegram(address userAddress, bytes memory _sig) public {\n        User storage verifyingUser = addressToUser[userAddress];\n\n        bytes32 dataToSign = keccak256(abi.encodePacked(userAddress, \"telegram: \", verifyingUser.telegram));\n        address verifier = recover(dataToSign, _sig);\n        require(addressIsAVerifier[verifier]);\n        verifyingUser.telegramVerifiedByAddresses.push(verifier);\n    }\n\n    function getNumberOfEmailVerifications(address userAddress) public view returns (uint256) {\n        User storage verifyingUser = addressToUser[userAddress];\n        return verifyingUser.emailVerifiedByAddresses.length;\n    }\n\n    function getNumberOfTelegramVerifications(address userAddress) public view returns (uint256) {\n        User storage verifyingUser = addressToUser[userAddress];\n        return verifyingUser.telegramVerifiedByAddresses.length;\n    }\n\n    function addVerifier(address newVerifier) public onlyOwner {\n        addressIsAVerifier[newVerifier] = true;\n    }\n\n    function removeVerifier(address verifierToRemove) public onlyOwner {\n        addressIsAVerifier[verifierToRemove] = false;\n    }\n}\n",
  "sourcePath": "/home/raf/keybook/contracts/Keybook.sol",
  "compiler": {
    "name": "solc",
    "version": "0.5.4+commit.9549d8ff.Emscripten.clang"
  },
  "schemaVersion": "3.0.1",
  "updatedAt": "2019-02-17T04:37:34.441Z",
  "devdoc": {
    "methods": {}
  },
  "userdoc": {
    "methods": {}
  }
}