{
  "contractName": "Keybook",
  "abi": [
    {
      "constant": true,
      "inputs": [
        {
          "name": "",
          "type": "address"
        }
      ],
      "name": "addressIsAVerifier",
      "outputs": [
        {
          "name": "",
          "type": "bool"
        }
      ],
      "payable": false,
      "stateMutability": "view",
      "type": "function"
    },
    {
      "constant": false,
      "inputs": [],
      "name": "renounceOwnership",
      "outputs": [],
      "payable": false,
      "stateMutability": "nonpayable",
      "type": "function"
    },
    {
      "constant": true,
      "inputs": [],
      "name": "owner",
      "outputs": [
        {
          "name": "",
          "type": "address"
        }
      ],
      "payable": false,
      "stateMutability": "view",
      "type": "function"
    },
    {
      "constant": true,
      "inputs": [],
      "name": "isOwner",
      "outputs": [
        {
          "name": "",
          "type": "bool"
        }
      ],
      "payable": false,
      "stateMutability": "view",
      "type": "function"
    },
    {
      "constant": false,
      "inputs": [
        {
          "name": "newOwner",
          "type": "address"
        }
      ],
      "name": "transferOwnership",
      "outputs": [],
      "payable": false,
      "stateMutability": "nonpayable",
      "type": "function"
    },
    {
      "anonymous": false,
      "inputs": [
        {
          "indexed": false,
          "name": "userAddress",
          "type": "address"
        },
        {
          "indexed": false,
          "name": "email",
          "type": "string"
        }
      ],
      "name": "NewEmailVerificationRequest",
      "type": "event"
    },
    {
      "anonymous": false,
      "inputs": [
        {
          "indexed": false,
          "name": "userAddress",
          "type": "address"
        },
        {
          "indexed": false,
          "name": "telegram",
          "type": "string"
        }
      ],
      "name": "NewTelegramVerificationRequest",
      "type": "event"
    },
    {
      "anonymous": false,
      "inputs": [
        {
          "indexed": true,
          "name": "previousOwner",
          "type": "address"
        },
        {
          "indexed": true,
          "name": "newOwner",
          "type": "address"
        }
      ],
      "name": "OwnershipTransferred",
      "type": "event"
    },
    {
      "constant": false,
      "inputs": [],
      "name": "requestEmailVerification",
      "outputs": [],
      "payable": false,
      "stateMutability": "nonpayable",
      "type": "function"
    },
    {
      "constant": false,
      "inputs": [],
      "name": "requestTelegramVerification",
      "outputs": [],
      "payable": false,
      "stateMutability": "nonpayable",
      "type": "function"
    },
    {
      "constant": true,
      "inputs": [
        {
          "name": "userAddress",
          "type": "address"
        }
      ],
      "name": "getEmailForUser",
      "outputs": [
        {
          "name": "",
          "type": "string"
        }
      ],
      "payable": false,
      "stateMutability": "view",
      "type": "function"
    },
    {
      "constant": true,
      "inputs": [
        {
          "name": "userAddress",
          "type": "address"
        }
      ],
      "name": "getTelegramForUser",
      "outputs": [
        {
          "name": "",
          "type": "string"
        }
      ],
      "payable": false,
      "stateMutability": "view",
      "type": "function"
    },
    {
      "constant": true,
      "inputs": [
        {
          "name": "userAddress",
          "type": "address"
        }
      ],
      "name": "getNameForUser",
      "outputs": [
        {
          "name": "",
          "type": "string"
        }
      ],
      "payable": false,
      "stateMutability": "view",
      "type": "function"
    },
    {
      "constant": false,
      "inputs": [
        {
          "name": "email",
          "type": "string"
        },
        {
          "name": "name",
          "type": "string"
        },
        {
          "name": "telegram",
          "type": "string"
        }
      ],
      "name": "makeUser",
      "outputs": [],
      "payable": false,
      "stateMutability": "nonpayable",
      "type": "function"
    },
    {
      "constant": false,
      "inputs": [
        {
          "name": "userAddress",
          "type": "address"
        },
        {
          "name": "_sig",
          "type": "bytes"
        }
      ],
      "name": "verifyEmail",
      "outputs": [],
      "payable": false,
      "stateMutability": "nonpayable",
      "type": "function"
    },
    {
      "constant": false,
      "inputs": [
        {
          "name": "userAddress",
          "type": "address"
        },
        {
          "name": "_sig",
          "type": "bytes"
        }
      ],
      "name": "verifyTelegram",
      "outputs": [],
      "payable": false,
      "stateMutability": "nonpayable",
      "type": "function"
    },
    {
      "constant": false,
      "inputs": [
        {
          "name": "newVerifier",
          "type": "address"
        }
      ],
      "name": "addVerifier",
      "outputs": [],
      "payable": false,
      "stateMutability": "nonpayable",
      "type": "function"
    },
    {
      "constant": false,
      "inputs": [
        {
          "name": "verifierToRemove",
          "type": "address"
        }
      ],
      "name": "removeVerifier",
      "outputs": [],
      "payable": false,
      "stateMutability": "nonpayable",
      "type": "function"
    }
  ],
  "bytecode": "0x6080604052336000806101000a81548173ffffffffffffffffffffffffffffffffffffffff021916908373ffffffffffffffffffffffffffffffffffffffff1602179055506000809054906101000a900473ffffffffffffffffffffffffffffffffffffffff1673ffffffffffffffffffffffffffffffffffffffff16600073ffffffffffffffffffffffffffffffffffffffff167f8be0079c531659141344cd1fd0a4f28419497f9722a3daafe3b4186f6b6457e060405160405180910390a3611c44806100cf6000396000f3fe608060405234801561001057600080fd5b5060043610610112576000357c010000000000000000000000000000000000000000000000000000000090048063769fb355116100b45780639000b3d6116100835780639000b3d6146107c9578063c30cd4a61461080d578063ca2dfd0a14610817578063f2fde38b1461085b57610112565b8063769fb355146105c557806377f91d03146106825780638da5cb5b1461075d5780638f32d59b146107a757610112565b80631c302e5a116100f05780631c302e5a146102b95780632629aecf1461031557806348579054146104fe578063715018a6146105bb57610112565b8063071222c51461011757806309d45345146101d45780631bcfd782146102af575b600080fd5b6101596004803603602081101561012d57600080fd5b81019080803573ffffffffffffffffffffffffffffffffffffffff16906020019092919050505061089f565b6040518080602001828103825283818151815260200191508051906020019080838360005b8381101561019957808201518184015260208101905061017e565b50505050905090810190601f1680156101c65780820380516001836020036101000a031916815260200191505b509250505060405180910390f35b6102ad600480360360408110156101ea57600080fd5b81019080803573ffffffffffffffffffffffffffffffffffffffff1690602001909291908035906020019064010000000081111561022757600080fd5b82018360208201111561023957600080fd5b8035906020019184600183028401116401000000008311171561025b57600080fd5b91908080601f016020809104026020016040519081016040528093929190818152602001838380828437600081840152601f19601f820116905080830192505050505050509192919290505050610983565b005b6102b7610b87565b005b6102fb600480360360208110156102cf57600080fd5b81019080803573ffffffffffffffffffffffffffffffffffffffff169060200190929190505050610d49565b604051808215151515815260200191505060405180910390f35b6104fc6004803603606081101561032b57600080fd5b810190808035906020019064010000000081111561034857600080fd5b82018360208201111561035a57600080fd5b8035906020019184600183028401116401000000008311171561037c57600080fd5b91908080601f016020809104026020016040519081016040528093929190818152602001838380828437600081840152601f19601f820116905080830192505050505050509192919290803590602001906401000000008111156103df57600080fd5b8201836020820111156103f157600080fd5b8035906020019184600183028401116401000000008311171561041357600080fd5b91908080601f016020809104026020016040519081016040528093929190818152602001838380828437600081840152601f19601f8201169050808301925050505050505091929192908035906020019064010000000081111561047657600080fd5b82018360208201111561048857600080fd5b803590602001918460018302840111640100000000831117156104aa57600080fd5b91908080601f016020809104026020016040519081016040528093929190818152602001838380828437600081840152601f19601f820116905080830192505050505050509192919290505050610d69565b005b6105406004803603602081101561051457600080fd5b81019080803573ffffffffffffffffffffffffffffffffffffffff16906020019092919050505061102e565b6040518080602001828103825283818151815260200191508051906020019080838360005b83811015610580578082015181840152602081019050610565565b50505050905090810190601f1680156105ad5780820380516001836020036101000a031916815260200191505b509250505060405180910390f35b6105c3611112565b005b610607600480360360208110156105db57600080fd5b81019080803573ffffffffffffffffffffffffffffffffffffffff1690602001909291905050506111e4565b6040518080602001828103825283818151815260200191508051906020019080838360005b8381101561064757808201518184015260208101905061062c565b50505050905090810190601f1680156106745780820380516001836020036101000a031916815260200191505b509250505060405180910390f35b61075b6004803603604081101561069857600080fd5b81019080803573ffffffffffffffffffffffffffffffffffffffff169060200190929190803590602001906401000000008111156106d557600080fd5b8201836020820111156106e757600080fd5b8035906020019184600183028401116401000000008311171561070957600080fd5b91908080601f016020809104026020016040519081016040528093929190818152602001838380828437600081840152601f19601f8201169050808301925050505050505091929192905050506112c8565b005b6107656114cc565b604051808273ffffffffffffffffffffffffffffffffffffffff1673ffffffffffffffffffffffffffffffffffffffff16815260200191505060405180910390f35b6107af6114f5565b604051808215151515815260200191505060405180910390f35b61080b600480360360208110156107df57600080fd5b81019080803573ffffffffffffffffffffffffffffffffffffffff16906020019092919050505061154c565b005b6108156115b9565b005b6108596004803603602081101561082d57600080fd5b81019080803573ffffffffffffffffffffffffffffffffffffffff16906020019092919050505061177b565b005b61089d6004803603602081101561087157600080fd5b81019080803573ffffffffffffffffffffffffffffffffffffffff1690602001909291905050506117e9565b005b6060600260008373ffffffffffffffffffffffffffffffffffffffff1673ffffffffffffffffffffffffffffffffffffffff1681526020019081526020016000206000018054600181600116156101000203166002900480601f0160208091040260200160405190810160405280929190818152602001828054600181600116156101000203166002900480156109775780601f1061094c57610100808354040283529160200191610977565b820191906000526020600020905b81548152906001019060200180831161095a57829003601f168201915b50505050509050919050565b6000600260008473ffffffffffffffffffffffffffffffffffffffff1673ffffffffffffffffffffffffffffffffffffffff168152602001908152602001600020905060008382600001604051602001808373ffffffffffffffffffffffffffffffffffffffff1673ffffffffffffffffffffffffffffffffffffffff166c01000000000000000000000000028152601401807f656d61696c3a200000000000000000000000000000000000000000000000000081525060070182805460018160011615610100020316600290048015610a945780601f10610a72576101008083540402835291820191610a94565b820191906000526020600020905b815481529060010190602001808311610a80575b5050925050506040516020818303038152906040528051906020012090506000610abe8285611808565b9050600160008273ffffffffffffffffffffffffffffffffffffffff1673ffffffffffffffffffffffffffffffffffffffff16815260200190815260200160002060009054906101000a900460ff161515610b1857600080fd5b826003018190806001815401808255809150509060018203906000526020600020016000909192909190916101000a81548173ffffffffffffffffffffffffffffffffffffffff021916908373ffffffffffffffffffffffffffffffffffffffff160217905550505050505050565b6060600260003373ffffffffffffffffffffffffffffffffffffffff1673ffffffffffffffffffffffffffffffffffffffff1681526020019081526020016000206000018054600181600116156101000203166002900480601f016020809104026020016040519081016040528092919081815260200182805460018160011615610100020316600290048015610c5f5780601f10610c3457610100808354040283529160200191610c5f565b820191906000526020600020905b815481529060010190602001808311610c4257829003601f168201915b5050505050905060008151111515610c7657600080fd5b7f45cd33169b48a5f565cac8e41ffb5b5b3330736e38f68c4b57fb1435d48436ba3382604051808373ffffffffffffffffffffffffffffffffffffffff1673ffffffffffffffffffffffffffffffffffffffff16815260200180602001828103825283818151815260200191508051906020019080838360005b83811015610d0b578082015181840152602081019050610cf0565b50505050905090810190601f168015610d385780820380516001836020036101000a031916815260200191505b50935050505060405180910390a150565b60016020528060005260406000206000915054906101000a900460ff1681565b6060610d73611a76565b60a06040519081016040528086815260200185815260200184815260200183815260200183815250905080600260003373ffffffffffffffffffffffffffffffffffffffff1673ffffffffffffffffffffffffffffffffffffffff1681526020019081526020016000206000820151816000019080519060200190610df9929190611aa6565b506020820151816001019080519060200190610e16929190611aa6565b506040820151816002019080519060200190610e33929190611aa6565b506060820151816003019080519060200190610e50929190611b26565b506080820151816004019080519060200190610e6d929190611b26565b50905050600085511115610f4c577f45cd33169b48a5f565cac8e41ffb5b5b3330736e38f68c4b57fb1435d48436ba3386604051808373ffffffffffffffffffffffffffffffffffffffff1673ffffffffffffffffffffffffffffffffffffffff16815260200180602001828103825283818151815260200191508051906020019080838360005b83811015610f10578082015181840152602081019050610ef5565b50505050905090810190601f168015610f3d5780820380516001836020036101000a031916815260200191505b50935050505060405180910390a15b600083511115611027577f9f92d7ea015cea4a0832a14786b4d4de451aae5377f5774be2f14ff208c9a2583384604051808373ffffffffffffffffffffffffffffffffffffffff1673ffffffffffffffffffffffffffffffffffffffff16815260200180602001828103825283818151815260200191508051906020019080838360005b83811015610feb578082015181840152602081019050610fd0565b50505050905090810190601f1680156110185780820380516001836020036101000a031916815260200191505b50935050505060405180910390a15b5050505050565b6060600260008373ffffffffffffffffffffffffffffffffffffffff1673ffffffffffffffffffffffffffffffffffffffff1681526020019081526020016000206001018054600181600116156101000203166002900480601f0160208091040260200160405190810160405280929190818152602001828054600181600116156101000203166002900480156111065780601f106110db57610100808354040283529160200191611106565b820191906000526020600020905b8154815290600101906020018083116110e957829003601f168201915b50505050509050919050565b61111a6114f5565b151561112557600080fd5b600073ffffffffffffffffffffffffffffffffffffffff166000809054906101000a900473ffffffffffffffffffffffffffffffffffffffff1673ffffffffffffffffffffffffffffffffffffffff167f8be0079c531659141344cd1fd0a4f28419497f9722a3daafe3b4186f6b6457e060405160405180910390a360008060006101000a81548173ffffffffffffffffffffffffffffffffffffffff021916908373ffffffffffffffffffffffffffffffffffffffff160217905550565b6060600260008373ffffffffffffffffffffffffffffffffffffffff1673ffffffffffffffffffffffffffffffffffffffff1681526020019081526020016000206002018054600181600116156101000203166002900480601f0160208091040260200160405190810160405280929190818152602001828054600181600116156101000203166002900480156112bc5780601f10611291576101008083540402835291602001916112bc565b820191906000526020600020905b81548152906001019060200180831161129f57829003601f168201915b50505050509050919050565b6000600260008473ffffffffffffffffffffffffffffffffffffffff1673ffffffffffffffffffffffffffffffffffffffff168152602001908152602001600020905060008382600201604051602001808373ffffffffffffffffffffffffffffffffffffffff1673ffffffffffffffffffffffffffffffffffffffff166c01000000000000000000000000028152601401807f74656c656772616d3a2000000000000000000000000000000000000000000000815250600a01828054600181600116156101000203166002900480156113d95780601f106113b75761010080835404028352918201916113d9565b820191906000526020600020905b8154815290600101906020018083116113c5575b50509250505060405160208183030381529060405280519060200120905060006114038285611808565b9050600160008273ffffffffffffffffffffffffffffffffffffffff1673ffffffffffffffffffffffffffffffffffffffff16815260200190815260200160002060009054906101000a900460ff16151561145d57600080fd5b826004018190806001815401808255809150509060018203906000526020600020016000909192909190916101000a81548173ffffffffffffffffffffffffffffffffffffffff021916908373ffffffffffffffffffffffffffffffffffffffff160217905550505050505050565b60008060009054906101000a900473ffffffffffffffffffffffffffffffffffffffff16905090565b60008060009054906101000a900473ffffffffffffffffffffffffffffffffffffffff1673ffffffffffffffffffffffffffffffffffffffff163373ffffffffffffffffffffffffffffffffffffffff1614905090565b6115546114f5565b151561155f57600080fd5b60018060008373ffffffffffffffffffffffffffffffffffffffff1673ffffffffffffffffffffffffffffffffffffffff16815260200190815260200160002060006101000a81548160ff02191690831515021790555050565b6060600260003373ffffffffffffffffffffffffffffffffffffffff1673ffffffffffffffffffffffffffffffffffffffff1681526020019081526020016000206002018054600181600116156101000203166002900480601f0160208091040260200160405190810160405280929190818152602001828054600181600116156101000203166002900480156116915780601f1061166657610100808354040283529160200191611691565b820191906000526020600020905b81548152906001019060200180831161167457829003601f168201915b50505050509050600081511115156116a857600080fd5b7f9f92d7ea015cea4a0832a14786b4d4de451aae5377f5774be2f14ff208c9a2583382604051808373ffffffffffffffffffffffffffffffffffffffff1673ffffffffffffffffffffffffffffffffffffffff16815260200180602001828103825283818151815260200191508051906020019080838360005b8381101561173d578082015181840152602081019050611722565b50505050905090810190601f16801561176a5780820380516001836020036101000a031916815260200191505b50935050505060405180910390a150565b6117836114f5565b151561178e57600080fd5b6000600160008373ffffffffffffffffffffffffffffffffffffffff1673ffffffffffffffffffffffffffffffffffffffff16815260200190815260200160002060006101000a81548160ff02191690831515021790555050565b6117f16114f5565b15156117fc57600080fd5b6118058161197c565b50565b60008260405160200180807f19457468657265756d205369676e6564204d6573736167653a0a333200000000815250601c018281526020019150506040516020818303038152906040528051906020012092506000806000604185511415156118775760009350505050611976565b6020850151925060408501519150606085015160001a9050601b8160ff1610156118a257601b810190505b601b8160ff16141580156118ba5750601c8160ff1614155b156118cb5760009350505050611976565b60027fffffffff00000000ffffffffffffffffbce6faada7179e84f3b9cac2fc6325518115156118f757fe5b04826001900410151561190957600080fd5b60018682858560405160008152602001604052604051808581526020018460ff1660ff1681526020018381526020018281526020019450505050506020604051602081039080840390855afa158015611966573d6000803e3d6000fd5b5050506020604051035193505050505b92915050565b600073ffffffffffffffffffffffffffffffffffffffff168173ffffffffffffffffffffffffffffffffffffffff16141515156119b857600080fd5b8073ffffffffffffffffffffffffffffffffffffffff166000809054906101000a900473ffffffffffffffffffffffffffffffffffffffff1673ffffffffffffffffffffffffffffffffffffffff167f8be0079c531659141344cd1fd0a4f28419497f9722a3daafe3b4186f6b6457e060405160405180910390a3806000806101000a81548173ffffffffffffffffffffffffffffffffffffffff021916908373ffffffffffffffffffffffffffffffffffffffff16021790555050565b60a06040519081016040528060608152602001606081526020016060815260200160608152602001606081525090565b828054600181600116156101000203166002900490600052602060002090601f016020900481019282601f10611ae757805160ff1916838001178555611b15565b82800160010185558215611b15579182015b82811115611b14578251825591602001919060010190611af9565b5b509050611b229190611bb0565b5090565b828054828255906000526020600020908101928215611b9f579160200282015b82811115611b9e5782518260006101000a81548173ffffffffffffffffffffffffffffffffffffffff021916908373ffffffffffffffffffffffffffffffffffffffff16021790555091602001919060010190611b46565b5b509050611bac9190611bd5565b5090565b611bd291905b80821115611bce576000816000905550600101611bb6565b5090565b90565b611c1591905b80821115611c1157600081816101000a81549073ffffffffffffffffffffffffffffffffffffffff021916905550600101611bdb565b5090565b9056fea165627a7a723058202a88b41b5a9cd6740929a0134b797c20f699423ab9c44e5777a7f07947db73c50029",
  "source": "pragma solidity ^0.5.4;\n\nimport {Ownable} from \"./Ownable.sol\";\n\n\ncontract Keybook is Ownable {\n\n    mapping(address => bool) public addressIsAVerifier;\n\n    struct User {\n        string email;\n        string name;\n        /* string phoneNumber; */\n        /* string pgpKey; */\n        /* string twitter; */\n        /* string website; */\n        string telegram;\n        address[] emailVerifiedByAddresses;\n        address[] telegramVerifiedByAddresses;\n    }\n\n    event NewEmailVerificationRequest(\n        address userAddress,\n        string email\n    );\n\n    event NewTelegramVerificationRequest(\n        address userAddress,\n        string telegram\n    );\n\n\n    mapping(address => User) addressToUser;\n\n\n    function requestEmailVerification() public {\n       string memory email = addressToUser[msg.sender].email;\n       require(bytes(email).length > 0);\n       emit NewEmailVerificationRequest(msg.sender, email);\n    }\n\n    function requestTelegramVerification() public {\n       string memory telegram = addressToUser[msg.sender].telegram;\n       require(bytes(telegram).length > 0);\n       emit NewTelegramVerificationRequest(msg.sender, telegram);\n    }\n\n    function getEmailForUser(address userAddress) public view returns (string memory) {\n        return addressToUser[userAddress].email;\n    }\n    function getTelegramForUser(address userAddress) public view returns (string memory) {\n        return addressToUser[userAddress].telegram;\n    }\n    function getNameForUser(address userAddress) public view returns (string memory) {\n        return addressToUser[userAddress].name;\n    }\n    /* function getPhoneForUser(address userAddress) public view returns (string memory) { */\n    /*     return addressToUser[userAddress].phoneNumber; */\n    /* } */\n    /* function getPgpKeyForUser(address userAddress) public view returns (string memory) { */\n    /*     return addressToUser[userAddress].pgpKey; */\n    /* } */\n    /* function getTwitterForUser(address userAddress) public view returns (string memory) { */\n    /*     return addressToUser[userAddress].twitter; */\n    /* } */\n    /* function getWebsiteForUser(address userAddress) public view returns (string memory) { */\n    /*     return addressToUser[userAddress].website; */\n    /* } */\n\n    function makeUser(string memory email,\n                      string memory name,\n                      /* string memory phoneNumber, */\n                      /* string memory pgpKey, */\n                      /* string memory twitter, */\n                      /* string memory website, */\n                      string memory telegram) public {\n        address[] memory emptyArray;\n        User memory newUser = User(email, name, telegram, emptyArray, emptyArray);\n        addressToUser[msg.sender] = newUser;\n        if (bytes(email).length > 0){\n            emit NewEmailVerificationRequest(msg.sender, email);\n        }\n        if (bytes(telegram).length > 0){\n            emit NewTelegramVerificationRequest(msg.sender, telegram);\n        }\n    }\n\n\n\n    uint256 constant N  = 115792089210356248762697446949407573529996955224135760342422259061068512044369;\n    //This is the curve order for spec256k\n\n    function recover(bytes32 hash, bytes memory sig) internal pure returns(address){\n        hash = keccak256(abi.encodePacked(\"\\x19Ethereum Signed Message:\\n32\", hash));\n\n        bytes32 r;\n        bytes32 s;\n        uint8 v;\n\n        if (sig.length != 65) return address(0);\n\n        assembly {\n            r := mload(add(sig, 32))\n            s := mload(add(sig, 64))\n            v := byte(0, mload(add(sig, 96)))\n        }\n\n        if (v < 27) {\n          v += 27;\n        }\n\n        if (v != 27 && v != 28) return address(0);\n\n        require(uint(s) < N/2); //We define that the lower s version of the signature is the valid one\n\n        return ecrecover(hash, v, r, s);\n    }\n\n\n    function verifyEmail(address userAddress, bytes memory _sig) public {\n        User storage verifyingUser = addressToUser[userAddress];\n        bytes32 dataToSign = keccak256(abi.encodePacked(userAddress, \"email: \", verifyingUser.email));\n        address verifier = recover(dataToSign, _sig);\n        require(addressIsAVerifier[verifier]);\n        verifyingUser.emailVerifiedByAddresses.push(verifier);\n    }\n\n    function verifyTelegram(address userAddress, bytes memory _sig) public {\n        User storage verifyingUser = addressToUser[userAddress];\n\n        bytes32 dataToSign = keccak256(abi.encodePacked(userAddress, \"telegram: \", verifyingUser.telegram));\n        address verifier = recover(dataToSign, _sig);\n        require(addressIsAVerifier[verifier]);\n        verifyingUser.telegramVerifiedByAddresses.push(verifier);\n    }\n\n    function addVerifier(address newVerifier) public onlyOwner {\n        addressIsAVerifier[newVerifier] = true;\n    }\n\n    function removeVerifier(address verifierToRemove) public onlyOwner {\n        addressIsAVerifier[verifierToRemove] = false;\n    }\n}\n",
  "sourcePath": "/home/raf/keybook/contracts/Keybook.sol",
  "compiler": {
    "name": "solc",
    "version": "0.5.4+commit.9549d8ff.Emscripten.clang"
  },
  "schemaVersion": "3.0.1",
  "updatedAt": "2019-02-17T04:36:09.244Z",
  "devdoc": {
    "methods": {}
  },
  "userdoc": {
    "methods": {}
  }
}