{
  "contractName": "Keybook",
  "abi": [
    {
      "constant": true,
      "inputs": [
        {
          "name": "",
          "type": "address"
        }
      ],
      "name": "addressIsAVerifier",
      "outputs": [
        {
          "name": "",
          "type": "bool"
        }
      ],
      "payable": false,
      "stateMutability": "view",
      "type": "function"
    },
    {
      "constant": false,
      "inputs": [],
      "name": "renounceOwnership",
      "outputs": [],
      "payable": false,
      "stateMutability": "nonpayable",
      "type": "function"
    },
    {
      "constant": true,
      "inputs": [],
      "name": "owner",
      "outputs": [
        {
          "name": "",
          "type": "address"
        }
      ],
      "payable": false,
      "stateMutability": "view",
      "type": "function"
    },
    {
      "constant": true,
      "inputs": [],
      "name": "isOwner",
      "outputs": [
        {
          "name": "",
          "type": "bool"
        }
      ],
      "payable": false,
      "stateMutability": "view",
      "type": "function"
    },
    {
      "constant": false,
      "inputs": [
        {
          "name": "newOwner",
          "type": "address"
        }
      ],
      "name": "transferOwnership",
      "outputs": [],
      "payable": false,
      "stateMutability": "nonpayable",
      "type": "function"
    },
    {
      "anonymous": false,
      "inputs": [
        {
          "indexed": false,
          "name": "userAddress",
          "type": "address"
        },
        {
          "indexed": false,
          "name": "email",
          "type": "string"
        }
      ],
      "name": "NewEmailVerificationRequest",
      "type": "event"
    },
    {
      "anonymous": false,
      "inputs": [
        {
          "indexed": false,
          "name": "userAddress",
          "type": "address"
        },
        {
          "indexed": false,
          "name": "telegram",
          "type": "string"
        }
      ],
      "name": "NewTelegramVerificationRequest",
      "type": "event"
    },
    {
      "anonymous": false,
      "inputs": [
        {
          "indexed": true,
          "name": "previousOwner",
          "type": "address"
        },
        {
          "indexed": true,
          "name": "newOwner",
          "type": "address"
        }
      ],
      "name": "OwnershipTransferred",
      "type": "event"
    },
    {
      "constant": false,
      "inputs": [],
      "name": "requestEmailVerification",
      "outputs": [],
      "payable": false,
      "stateMutability": "nonpayable",
      "type": "function"
    },
    {
      "constant": false,
      "inputs": [],
      "name": "requestTelegramVerification",
      "outputs": [],
      "payable": false,
      "stateMutability": "nonpayable",
      "type": "function"
    },
    {
      "constant": true,
      "inputs": [
        {
          "name": "userAddress",
          "type": "address"
        }
      ],
      "name": "getEmailForUser",
      "outputs": [
        {
          "name": "",
          "type": "string"
        }
      ],
      "payable": false,
      "stateMutability": "view",
      "type": "function"
    },
    {
      "constant": true,
      "inputs": [
        {
          "name": "userAddress",
          "type": "address"
        }
      ],
      "name": "getTelegramForUser",
      "outputs": [
        {
          "name": "",
          "type": "string"
        }
      ],
      "payable": false,
      "stateMutability": "view",
      "type": "function"
    },
    {
      "constant": true,
      "inputs": [
        {
          "name": "userAddress",
          "type": "address"
        }
      ],
      "name": "getNameForUser",
      "outputs": [
        {
          "name": "",
          "type": "string"
        }
      ],
      "payable": false,
      "stateMutability": "view",
      "type": "function"
    },
    {
      "constant": false,
      "inputs": [
        {
          "name": "email",
          "type": "string"
        },
        {
          "name": "name",
          "type": "string"
        },
        {
          "name": "telegram",
          "type": "string"
        }
      ],
      "name": "makeUser",
      "outputs": [],
      "payable": false,
      "stateMutability": "nonpayable",
      "type": "function"
    },
    {
      "constant": false,
      "inputs": [
        {
          "name": "userAddress",
          "type": "address"
        },
        {
          "name": "v",
          "type": "uint8"
        },
        {
          "name": "r",
          "type": "bytes32"
        },
        {
          "name": "s",
          "type": "bytes32"
        }
      ],
      "name": "verifyEmail",
      "outputs": [],
      "payable": false,
      "stateMutability": "nonpayable",
      "type": "function"
    },
    {
      "constant": false,
      "inputs": [
        {
          "name": "userAddress",
          "type": "address"
        },
        {
          "name": "v",
          "type": "uint8"
        },
        {
          "name": "r",
          "type": "bytes32"
        },
        {
          "name": "s",
          "type": "bytes32"
        }
      ],
      "name": "verifyTelegram",
      "outputs": [],
      "payable": false,
      "stateMutability": "nonpayable",
      "type": "function"
    },
    {
      "constant": false,
      "inputs": [
        {
          "name": "newVerifier",
          "type": "address"
        }
      ],
      "name": "addVerifier",
      "outputs": [],
      "payable": false,
      "stateMutability": "nonpayable",
      "type": "function"
    },
    {
      "constant": false,
      "inputs": [
        {
          "name": "verifierToRemove",
          "type": "address"
        }
      ],
      "name": "removeVerifier",
      "outputs": [],
      "payable": false,
      "stateMutability": "nonpayable",
      "type": "function"
    }
  ],
  "bytecode": "0x6080604052336000806101000a81548173ffffffffffffffffffffffffffffffffffffffff021916908373ffffffffffffffffffffffffffffffffffffffff1602179055506000809054906101000a900473ffffffffffffffffffffffffffffffffffffffff1673ffffffffffffffffffffffffffffffffffffffff16600073ffffffffffffffffffffffffffffffffffffffff167f8be0079c531659141344cd1fd0a4f28419497f9722a3daafe3b4186f6b6457e060405160405180910390a3611c1a806100cf6000396000f3fe608060405234801561001057600080fd5b5060043610610112576000357c010000000000000000000000000000000000000000000000000000000090048063769fb355116100b45780639000b3d6116100835780639000b3d6146106dd578063c30cd4a614610721578063ca2dfd0a1461072b578063f2fde38b1461076f57610112565b8063769fb3551461054f578063780965121461060c5780638da5cb5b146106715780638f32d59b146106bb57610112565b80632629aecf116100f05780632629aecf1461023a57806348579054146104235780635704db39146104e0578063715018a61461054557610112565b8063071222c5146101175780631bcfd782146101d45780631c302e5a146101de575b600080fd5b6101596004803603602081101561012d57600080fd5b81019080803573ffffffffffffffffffffffffffffffffffffffff1690602001909291905050506107b3565b6040518080602001828103825283818151815260200191508051906020019080838360005b8381101561019957808201518184015260208101905061017e565b50505050905090810190601f1680156101c65780820380516001836020036101000a031916815260200191505b509250505060405180910390f35b6101dc610897565b005b610220600480360360208110156101f457600080fd5b81019080803573ffffffffffffffffffffffffffffffffffffffff169060200190929190505050610a59565b604051808215151515815260200191505060405180910390f35b6104216004803603606081101561025057600080fd5b810190808035906020019064010000000081111561026d57600080fd5b82018360208201111561027f57600080fd5b803590602001918460018302840111640100000000831117156102a157600080fd5b91908080601f016020809104026020016040519081016040528093929190818152602001838380828437600081840152601f19601f8201169050808301925050505050505091929192908035906020019064010000000081111561030457600080fd5b82018360208201111561031657600080fd5b8035906020019184600183028401116401000000008311171561033857600080fd5b91908080601f016020809104026020016040519081016040528093929190818152602001838380828437600081840152601f19601f8201169050808301925050505050505091929192908035906020019064010000000081111561039b57600080fd5b8201836020820111156103ad57600080fd5b803590602001918460018302840111640100000000831117156103cf57600080fd5b91908080601f016020809104026020016040519081016040528093929190818152602001838380828437600081840152601f19601f820116905080830192505050505050509192919290505050610a79565b005b6104656004803603602081101561043957600080fd5b81019080803573ffffffffffffffffffffffffffffffffffffffff169060200190929190505050610d3e565b6040518080602001828103825283818151815260200191508051906020019080838360005b838110156104a557808201518184015260208101905061048a565b50505050905090810190601f1680156104d25780820380516001836020036101000a031916815260200191505b509250505060405180910390f35b610543600480360360808110156104f657600080fd5b81019080803573ffffffffffffffffffffffffffffffffffffffff169060200190929190803560ff1690602001909291908035906020019092919080359060200190929190505050610e22565b005b61054d611141565b005b6105916004803603602081101561056557600080fd5b81019080803573ffffffffffffffffffffffffffffffffffffffff169060200190929190505050611213565b6040518080602001828103825283818151815260200191508051906020019080838360005b838110156105d15780820151818401526020810190506105b6565b50505050905090810190601f1680156105fe5780820380516001836020036101000a031916815260200191505b509250505060405180910390f35b61066f6004803603608081101561062257600080fd5b81019080803573ffffffffffffffffffffffffffffffffffffffff169060200190929190803560ff16906020019092919080359060200190929190803590602001909291905050506112f7565b005b610679611616565b604051808273ffffffffffffffffffffffffffffffffffffffff1673ffffffffffffffffffffffffffffffffffffffff16815260200191505060405180910390f35b6106c361163f565b604051808215151515815260200191505060405180910390f35b61071f600480360360208110156106f357600080fd5b81019080803573ffffffffffffffffffffffffffffffffffffffff169060200190929190505050611696565b005b610729611703565b005b61076d6004803603602081101561074157600080fd5b81019080803573ffffffffffffffffffffffffffffffffffffffff1690602001909291905050506118c5565b005b6107b16004803603602081101561078557600080fd5b81019080803573ffffffffffffffffffffffffffffffffffffffff169060200190929190505050611933565b005b6060600260008373ffffffffffffffffffffffffffffffffffffffff1673ffffffffffffffffffffffffffffffffffffffff1681526020019081526020016000206000018054600181600116156101000203166002900480601f01602080910402602001604051908101604052809291908181526020018280546001816001161561010002031660029004801561088b5780601f106108605761010080835404028352916020019161088b565b820191906000526020600020905b81548152906001019060200180831161086e57829003601f168201915b50505050509050919050565b6060600260003373ffffffffffffffffffffffffffffffffffffffff1673ffffffffffffffffffffffffffffffffffffffff1681526020019081526020016000206000018054600181600116156101000203166002900480601f01602080910402602001604051908101604052809291908181526020018280546001816001161561010002031660029004801561096f5780601f106109445761010080835404028352916020019161096f565b820191906000526020600020905b81548152906001019060200180831161095257829003601f168201915b505050505090506000815111151561098657600080fd5b7f45cd33169b48a5f565cac8e41ffb5b5b3330736e38f68c4b57fb1435d48436ba3382604051808373ffffffffffffffffffffffffffffffffffffffff1673ffffffffffffffffffffffffffffffffffffffff16815260200180602001828103825283818151815260200191508051906020019080838360005b83811015610a1b578082015181840152602081019050610a00565b50505050905090810190601f168015610a485780820380516001836020036101000a031916815260200191505b50935050505060405180910390a150565b60016020528060005260406000206000915054906101000a900460ff1681565b6060610a83611a4c565b60a06040519081016040528086815260200185815260200184815260200183815260200183815250905080600260003373ffffffffffffffffffffffffffffffffffffffff1673ffffffffffffffffffffffffffffffffffffffff1681526020019081526020016000206000820151816000019080519060200190610b09929190611a7c565b506020820151816001019080519060200190610b26929190611a7c565b506040820151816002019080519060200190610b43929190611a7c565b506060820151816003019080519060200190610b60929190611afc565b506080820151816004019080519060200190610b7d929190611afc565b50905050600085511115610c5c577f45cd33169b48a5f565cac8e41ffb5b5b3330736e38f68c4b57fb1435d48436ba3386604051808373ffffffffffffffffffffffffffffffffffffffff1673ffffffffffffffffffffffffffffffffffffffff16815260200180602001828103825283818151815260200191508051906020019080838360005b83811015610c20578082015181840152602081019050610c05565b50505050905090810190601f168015610c4d5780820380516001836020036101000a031916815260200191505b50935050505060405180910390a15b600083511115610d37577f9f92d7ea015cea4a0832a14786b4d4de451aae5377f5774be2f14ff208c9a2583384604051808373ffffffffffffffffffffffffffffffffffffffff1673ffffffffffffffffffffffffffffffffffffffff16815260200180602001828103825283818151815260200191508051906020019080838360005b83811015610cfb578082015181840152602081019050610ce0565b50505050905090810190601f168015610d285780820380516001836020036101000a031916815260200191505b50935050505060405180910390a15b5050505050565b6060600260008373ffffffffffffffffffffffffffffffffffffffff1673ffffffffffffffffffffffffffffffffffffffff1681526020019081526020016000206001018054600181600116156101000203166002900480601f016020809104026020016040519081016040528092919081815260200182805460018160011615610100020316600290048015610e165780601f10610deb57610100808354040283529160200191610e16565b820191906000526020600020905b815481529060010190602001808311610df957829003601f168201915b50505050509050919050565b6000600260008673ffffffffffffffffffffffffffffffffffffffff1673ffffffffffffffffffffffffffffffffffffffff168152602001908152602001600020905060008582600001604051602001808373ffffffffffffffffffffffffffffffffffffffff1673ffffffffffffffffffffffffffffffffffffffff166c0100000000000000000000000002815260140182805460018160011615610100020316600290048015610f0b5780601f10610ee9576101008083540402835291820191610f0b565b820191906000526020600020905b815481529060010190602001808311610ef7575b50509250505060405160208183030381529060405280519060200120905060606040805190810160405280601c81526020017f19457468657265756d205369676e6564204d6573736167653a0a3332000000008152509050600081836040516020018083805190602001908083835b602083101515610f9f5780518252602082019150602081019050602083039250610f7a565b6001836020036101000a038019825116818451168082178552505050505050905001807f656d61696c3a200000000000000000000000000000000000000000000000000081525060070182815260200192505050604051602081830303815290604052805190602001209050600060018289898960405160008152602001604052604051808581526020018460ff1660ff1681526020018381526020018281526020019450505050506020604051602081039080840390855afa15801561106a573d6000803e3d6000fd5b505050602060405103519050600160008273ffffffffffffffffffffffffffffffffffffffff1673ffffffffffffffffffffffffffffffffffffffff16815260200190815260200160002060009054906101000a900460ff1615156110ce57600080fd5b846003018190806001815401808255809150509060018203906000526020600020016000909192909190916101000a81548173ffffffffffffffffffffffffffffffffffffffff021916908373ffffffffffffffffffffffffffffffffffffffff16021790555050505050505050505050565b61114961163f565b151561115457600080fd5b600073ffffffffffffffffffffffffffffffffffffffff166000809054906101000a900473ffffffffffffffffffffffffffffffffffffffff1673ffffffffffffffffffffffffffffffffffffffff167f8be0079c531659141344cd1fd0a4f28419497f9722a3daafe3b4186f6b6457e060405160405180910390a360008060006101000a81548173ffffffffffffffffffffffffffffffffffffffff021916908373ffffffffffffffffffffffffffffffffffffffff160217905550565b6060600260008373ffffffffffffffffffffffffffffffffffffffff1673ffffffffffffffffffffffffffffffffffffffff1681526020019081526020016000206002018054600181600116156101000203166002900480601f0160208091040260200160405190810160405280929190818152602001828054600181600116156101000203166002900480156112eb5780601f106112c0576101008083540402835291602001916112eb565b820191906000526020600020905b8154815290600101906020018083116112ce57829003601f168201915b50505050509050919050565b6000600260008673ffffffffffffffffffffffffffffffffffffffff1673ffffffffffffffffffffffffffffffffffffffff168152602001908152602001600020905060008582600201604051602001808373ffffffffffffffffffffffffffffffffffffffff1673ffffffffffffffffffffffffffffffffffffffff166c01000000000000000000000000028152601401828054600181600116156101000203166002900480156113e05780601f106113be5761010080835404028352918201916113e0565b820191906000526020600020905b8154815290600101906020018083116113cc575b50509250505060405160208183030381529060405280519060200120905060606040805190810160405280601c81526020017f19457468657265756d205369676e6564204d6573736167653a0a3332000000008152509050600081836040516020018083805190602001908083835b602083101515611474578051825260208201915060208101905060208303925061144f565b6001836020036101000a038019825116818451168082178552505050505050905001807f74656c656772616d3a2000000000000000000000000000000000000000000000815250600a0182815260200192505050604051602081830303815290604052805190602001209050600060018289898960405160008152602001604052604051808581526020018460ff1660ff1681526020018381526020018281526020019450505050506020604051602081039080840390855afa15801561153f573d6000803e3d6000fd5b505050602060405103519050600160008273ffffffffffffffffffffffffffffffffffffffff1673ffffffffffffffffffffffffffffffffffffffff16815260200190815260200160002060009054906101000a900460ff1615156115a357600080fd5b846004018190806001815401808255809150509060018203906000526020600020016000909192909190916101000a81548173ffffffffffffffffffffffffffffffffffffffff021916908373ffffffffffffffffffffffffffffffffffffffff16021790555050505050505050505050565b60008060009054906101000a900473ffffffffffffffffffffffffffffffffffffffff16905090565b60008060009054906101000a900473ffffffffffffffffffffffffffffffffffffffff1673ffffffffffffffffffffffffffffffffffffffff163373ffffffffffffffffffffffffffffffffffffffff1614905090565b61169e61163f565b15156116a957600080fd5b60018060008373ffffffffffffffffffffffffffffffffffffffff1673ffffffffffffffffffffffffffffffffffffffff16815260200190815260200160002060006101000a81548160ff02191690831515021790555050565b6060600260003373ffffffffffffffffffffffffffffffffffffffff1673ffffffffffffffffffffffffffffffffffffffff1681526020019081526020016000206002018054600181600116156101000203166002900480601f0160208091040260200160405190810160405280929190818152602001828054600181600116156101000203166002900480156117db5780601f106117b0576101008083540402835291602001916117db565b820191906000526020600020905b8154815290600101906020018083116117be57829003601f168201915b50505050509050600081511115156117f257600080fd5b7f9f92d7ea015cea4a0832a14786b4d4de451aae5377f5774be2f14ff208c9a2583382604051808373ffffffffffffffffffffffffffffffffffffffff1673ffffffffffffffffffffffffffffffffffffffff16815260200180602001828103825283818151815260200191508051906020019080838360005b8381101561188757808201518184015260208101905061186c565b50505050905090810190601f1680156118b45780820380516001836020036101000a031916815260200191505b50935050505060405180910390a150565b6118cd61163f565b15156118d857600080fd5b6000600160008373ffffffffffffffffffffffffffffffffffffffff1673ffffffffffffffffffffffffffffffffffffffff16815260200190815260200160002060006101000a81548160ff02191690831515021790555050565b61193b61163f565b151561194657600080fd5b61194f81611952565b50565b600073ffffffffffffffffffffffffffffffffffffffff168173ffffffffffffffffffffffffffffffffffffffff161415151561198e57600080fd5b8073ffffffffffffffffffffffffffffffffffffffff166000809054906101000a900473ffffffffffffffffffffffffffffffffffffffff1673ffffffffffffffffffffffffffffffffffffffff167f8be0079c531659141344cd1fd0a4f28419497f9722a3daafe3b4186f6b6457e060405160405180910390a3806000806101000a81548173ffffffffffffffffffffffffffffffffffffffff021916908373ffffffffffffffffffffffffffffffffffffffff16021790555050565b60a06040519081016040528060608152602001606081526020016060815260200160608152602001606081525090565b828054600181600116156101000203166002900490600052602060002090601f016020900481019282601f10611abd57805160ff1916838001178555611aeb565b82800160010185558215611aeb579182015b82811115611aea578251825591602001919060010190611acf565b5b509050611af89190611b86565b5090565b828054828255906000526020600020908101928215611b75579160200282015b82811115611b745782518260006101000a81548173ffffffffffffffffffffffffffffffffffffffff021916908373ffffffffffffffffffffffffffffffffffffffff16021790555091602001919060010190611b1c565b5b509050611b829190611bab565b5090565b611ba891905b80821115611ba4576000816000905550600101611b8c565b5090565b90565b611beb91905b80821115611be757600081816101000a81549073ffffffffffffffffffffffffffffffffffffffff021916905550600101611bb1565b5090565b9056fea165627a7a72305820243b8fe204b302a45c25d6e013a665d7af890c228420b2d7e3d029be366951dd0029",
  "source": "pragma solidity ^0.5.4;\n\nimport {Ownable} from \"./Ownable.sol\";\n\n\ncontract Keybook is Ownable {\n\n    mapping(address => bool) public addressIsAVerifier;\n\n    struct User {\n        string email;\n        string name;\n        /* string phoneNumber; */\n        /* string pgpKey; */\n        /* string twitter; */\n        /* string website; */\n        string telegram;\n        address[] emailVerifiedByAddresses;\n        address[] telegramVerifiedByAddresses;\n    }\n\n    event NewEmailVerificationRequest(\n        address userAddress,\n        string email\n    );\n    \n    event NewTelegramVerificationRequest(\n        address userAddress,\n        string telegram\n    );\n\n    mapping(address => User) addressToUser;\n\n\n    function requestEmailVerification() public {\n       string memory email = addressToUser[msg.sender].email;\n       require(bytes(email).length > 0);\n       emit NewEmailVerificationRequest(msg.sender, email);\n    }\n    \n    function requestTelegramVerification() public {\n       string memory telegram = addressToUser[msg.sender].telegram;\n       require(bytes(telegram).length > 0);\n       emit NewTelegramVerificationRequest(msg.sender, telegram);\n    }\n    \n    function getEmailForUser(address userAddress) public view returns (string memory) {\n        return addressToUser[userAddress].email;\n    }\n    function getTelegramForUser(address userAddress) public view returns (string memory) {\n        return addressToUser[userAddress].telegram;\n    }\n    function getNameForUser(address userAddress) public view returns (string memory) {\n        return addressToUser[userAddress].name;\n    }\n    /* function getPhoneForUser(address userAddress) public view returns (string memory) { */\n    /*     return addressToUser[userAddress].phoneNumber; */\n    /* } */\n    /* function getPgpKeyForUser(address userAddress) public view returns (string memory) { */\n    /*     return addressToUser[userAddress].pgpKey; */\n    /* } */\n    /* function getTwitterForUser(address userAddress) public view returns (string memory) { */\n    /*     return addressToUser[userAddress].twitter; */\n    /* } */\n    /* function getWebsiteForUser(address userAddress) public view returns (string memory) { */\n    /*     return addressToUser[userAddress].website; */\n    /* } */\n\n    function makeUser(string memory email,\n                      string memory name,\n                      /* string memory phoneNumber, */\n                      /* string memory pgpKey, */\n                      /* string memory twitter, */\n                      /* string memory website, */\n                      string memory telegram) public {\n        address[] memory emptyArray;\n        User memory newUser = User(email, name, telegram, emptyArray, emptyArray);\n        addressToUser[msg.sender] = newUser;\n        if (bytes(email).length > 0){\n            emit NewEmailVerificationRequest(msg.sender, email);\n        }\n        if (bytes(telegram).length > 0){\n            emit NewTelegramVerificationRequest(msg.sender, telegram);\n        }\n    }\n\n    function verifyEmail(address userAddress, uint8 v, bytes32 r, bytes32 s) public {\n        User storage verifyingUser = addressToUser[userAddress];\n\n        bytes32 dataToSign = keccak256(abi.encodePacked(userAddress, verifyingUser.email));\n        bytes memory prefix = \"\\x19Ethereum Signed Message:\\n32\";\n        bytes32 prefixedHash = keccak256(abi.encodePacked( prefix, \"email: \", dataToSign));\n        address verifier = ecrecover(prefixedHash, v, r, s);\n        require(addressIsAVerifier[verifier]);\n        verifyingUser.emailVerifiedByAddresses.push(verifier);\n    }\n\n    function verifyTelegram(address userAddress, uint8 v, bytes32 r, bytes32 s) public {\n        User storage verifyingUser = addressToUser[userAddress];\n\n        bytes32 dataToSign = keccak256(abi.encodePacked(userAddress, verifyingUser.telegram));\n        bytes memory prefix = \"\\x19Ethereum Signed Message:\\n32\";\n        bytes32 prefixedHash = keccak256(abi.encodePacked( prefix, \"telegram: \", dataToSign));\n        address verifier = ecrecover(prefixedHash, v, r, s);\n        require(addressIsAVerifier[verifier]);\n        verifyingUser.telegramVerifiedByAddresses.push(verifier);\n    }\n\n    function addVerifier(address newVerifier) public onlyOwner {\n        addressIsAVerifier[newVerifier] = true;\n    }\n\n    function removeVerifier(address verifierToRemove) public onlyOwner {\n        addressIsAVerifier[verifierToRemove] = false;\n    }\n}\n",
  "sourcePath": "/home/raf/keybook/contracts/Keybook.sol",
  "compiler": {
    "name": "solc",
    "version": "0.5.4+commit.9549d8ff.Emscripten.clang"
  },
  "schemaVersion": "3.0.1",
  "updatedAt": "2019-02-16T23:59:14.408Z",
  "devdoc": {
    "methods": {}
  },
  "userdoc": {
    "methods": {}
  }
}