{
  "contractName": "Keybook",
  "abi": [
    {
      "constant": true,
      "inputs": [
        {
          "name": "",
          "type": "address"
        }
      ],
      "name": "addressIsAVerifier",
      "outputs": [
        {
          "name": "",
          "type": "bool"
        }
      ],
      "payable": false,
      "stateMutability": "view",
      "type": "function"
    },
    {
      "constant": false,
      "inputs": [],
      "name": "renounceOwnership",
      "outputs": [],
      "payable": false,
      "stateMutability": "nonpayable",
      "type": "function"
    },
    {
      "constant": true,
      "inputs": [],
      "name": "owner",
      "outputs": [
        {
          "name": "",
          "type": "address"
        }
      ],
      "payable": false,
      "stateMutability": "view",
      "type": "function"
    },
    {
      "constant": true,
      "inputs": [],
      "name": "isOwner",
      "outputs": [
        {
          "name": "",
          "type": "bool"
        }
      ],
      "payable": false,
      "stateMutability": "view",
      "type": "function"
    },
    {
      "constant": false,
      "inputs": [
        {
          "name": "newOwner",
          "type": "address"
        }
      ],
      "name": "transferOwnership",
      "outputs": [],
      "payable": false,
      "stateMutability": "nonpayable",
      "type": "function"
    },
    {
      "anonymous": false,
      "inputs": [
        {
          "indexed": false,
          "name": "userAddress",
          "type": "address"
        },
        {
          "indexed": false,
          "name": "email",
          "type": "string"
        }
      ],
      "name": "NewEmailVerificationRequest",
      "type": "event"
    },
    {
      "anonymous": false,
      "inputs": [
        {
          "indexed": true,
          "name": "previousOwner",
          "type": "address"
        },
        {
          "indexed": true,
          "name": "newOwner",
          "type": "address"
        }
      ],
      "name": "OwnershipTransferred",
      "type": "event"
    },
    {
      "constant": false,
      "inputs": [],
      "name": "requestEmailVerification",
      "outputs": [],
      "payable": false,
      "stateMutability": "nonpayable",
      "type": "function"
    },
    {
      "constant": true,
      "inputs": [
        {
          "name": "userAddress",
          "type": "address"
        }
      ],
      "name": "getEmailForUser",
      "outputs": [
        {
          "name": "",
          "type": "string"
        }
      ],
      "payable": false,
      "stateMutability": "view",
      "type": "function"
    },
    {
      "constant": true,
      "inputs": [
        {
          "name": "userAddress",
          "type": "address"
        }
      ],
      "name": "getNameForUser",
      "outputs": [
        {
          "name": "",
          "type": "string"
        }
      ],
      "payable": false,
      "stateMutability": "view",
      "type": "function"
    },
    {
      "constant": true,
      "inputs": [
        {
          "name": "userAddress",
          "type": "address"
        }
      ],
      "name": "getPhoneForUser",
      "outputs": [
        {
          "name": "",
          "type": "string"
        }
      ],
      "payable": false,
      "stateMutability": "view",
      "type": "function"
    },
    {
      "constant": true,
      "inputs": [
        {
          "name": "userAddress",
          "type": "address"
        }
      ],
      "name": "getPgpKeyForUser",
      "outputs": [
        {
          "name": "",
          "type": "string"
        }
      ],
      "payable": false,
      "stateMutability": "view",
      "type": "function"
    },
    {
      "constant": true,
      "inputs": [
        {
          "name": "userAddress",
          "type": "address"
        }
      ],
      "name": "getTwitterForUser",
      "outputs": [
        {
          "name": "",
          "type": "string"
        }
      ],
      "payable": false,
      "stateMutability": "view",
      "type": "function"
    },
    {
      "constant": true,
      "inputs": [
        {
          "name": "userAddress",
          "type": "address"
        }
      ],
      "name": "getWebsiteForUser",
      "outputs": [
        {
          "name": "",
          "type": "string"
        }
      ],
      "payable": false,
      "stateMutability": "view",
      "type": "function"
    },
    {
      "constant": false,
      "inputs": [
        {
          "name": "email",
          "type": "string"
        },
        {
          "name": "name",
          "type": "string"
        },
        {
          "name": "phoneNumber",
          "type": "string"
        },
        {
          "name": "pgpKey",
          "type": "string"
        },
        {
          "name": "twitter",
          "type": "string"
        },
        {
          "name": "website",
          "type": "string"
        }
      ],
      "name": "makeUser",
      "outputs": [],
      "payable": false,
      "stateMutability": "nonpayable",
      "type": "function"
    },
    {
      "constant": false,
      "inputs": [
        {
          "name": "userAddress",
          "type": "address"
        },
        {
          "name": "v",
          "type": "uint8"
        },
        {
          "name": "r",
          "type": "bytes32"
        },
        {
          "name": "s",
          "type": "bytes32"
        }
      ],
      "name": "verifyEmail",
      "outputs": [],
      "payable": false,
      "stateMutability": "nonpayable",
      "type": "function"
    },
    {
      "constant": false,
      "inputs": [
        {
          "name": "newVerifier",
          "type": "address"
        }
      ],
      "name": "addVerifier",
      "outputs": [],
      "payable": false,
      "stateMutability": "nonpayable",
      "type": "function"
    },
    {
      "constant": false,
      "inputs": [
        {
          "name": "verifierToRemove",
          "type": "address"
        }
      ],
      "name": "removeVerifier",
      "outputs": [],
      "payable": false,
      "stateMutability": "nonpayable",
      "type": "function"
    }
  ],
  "bytecode": "0x6080604052336000806101000a81548173ffffffffffffffffffffffffffffffffffffffff021916908373ffffffffffffffffffffffffffffffffffffffff1602179055506000809054906101000a900473ffffffffffffffffffffffffffffffffffffffff1673ffffffffffffffffffffffffffffffffffffffff16600073ffffffffffffffffffffffffffffffffffffffff167f8be0079c531659141344cd1fd0a4f28419497f9722a3daafe3b4186f6b6457e060405160405180910390a3611c34806100cf6000396000f3fe608060405234801561001057600080fd5b506004361061011d576000357c0100000000000000000000000000000000000000000000000000000000900480635f82c2a8116100b45780638f32d59b116100835780638f32d59b14610a5d5780639000b3d614610a7f578063ca2dfd0a14610ac3578063f2fde38b14610b075761011d565b80635f82c2a81461059e578063715018a61461094c578063805384ec146109565780638da5cb5b14610a135761011d565b80631c302e5a116100f05780631c302e5a146103635780632223346f146103bf578063485790541461047c5780635704db39146105395761011d565b8063071222c51461012257806309e33551146101df57806314da6db51461029c5780631bcfd78214610359575b600080fd5b6101646004803603602081101561013857600080fd5b81019080803573ffffffffffffffffffffffffffffffffffffffff169060200190929190505050610b4b565b6040518080602001828103825283818151815260200191508051906020019080838360005b838110156101a4578082015181840152602081019050610189565b50505050905090810190601f1680156101d15780820380516001836020036101000a031916815260200191505b509250505060405180910390f35b610221600480360360208110156101f557600080fd5b81019080803573ffffffffffffffffffffffffffffffffffffffff169060200190929190505050610c2f565b6040518080602001828103825283818151815260200191508051906020019080838360005b83811015610261578082015181840152602081019050610246565b50505050905090810190601f16801561028e5780820380516001836020036101000a031916815260200191505b509250505060405180910390f35b6102de600480360360208110156102b257600080fd5b81019080803573ffffffffffffffffffffffffffffffffffffffff169060200190929190505050610d13565b6040518080602001828103825283818151815260200191508051906020019080838360005b8381101561031e578082015181840152602081019050610303565b50505050905090810190601f16801561034b5780820380516001836020036101000a031916815260200191505b509250505060405180910390f35b610361610df7565b005b6103a56004803603602081101561037957600080fd5b81019080803573ffffffffffffffffffffffffffffffffffffffff169060200190929190505050610f27565b604051808215151515815260200191505060405180910390f35b610401600480360360208110156103d557600080fd5b81019080803573ffffffffffffffffffffffffffffffffffffffff169060200190929190505050610f47565b6040518080602001828103825283818151815260200191508051906020019080838360005b83811015610441578082015181840152602081019050610426565b50505050905090810190601f16801561046e5780820380516001836020036101000a031916815260200191505b509250505060405180910390f35b6104be6004803603602081101561049257600080fd5b81019080803573ffffffffffffffffffffffffffffffffffffffff16906020019092919050505061102b565b6040518080602001828103825283818151815260200191508051906020019080838360005b838110156104fe5780820151818401526020810190506104e3565b50505050905090810190601f16801561052b5780820380516001836020036101000a031916815260200191505b509250505060405180910390f35b61059c6004803603608081101561054f57600080fd5b81019080803573ffffffffffffffffffffffffffffffffffffffff169060200190929190803560ff169060200190929190803590602001909291908035906020019092919050505061110f565b005b61094a600480360360c08110156105b457600080fd5b81019080803590602001906401000000008111156105d157600080fd5b8201836020820111156105e357600080fd5b8035906020019184600183028401116401000000008311171561060557600080fd5b91908080601f016020809104026020016040519081016040528093929190818152602001838380828437600081840152601f19601f8201169050808301925050505050505091929192908035906020019064010000000081111561066857600080fd5b82018360208201111561067a57600080fd5b8035906020019184600183028401116401000000008311171561069c57600080fd5b91908080601f016020809104026020016040519081016040528093929190818152602001838380828437600081840152601f19601f820116905080830192505050505050509192919290803590602001906401000000008111156106ff57600080fd5b82018360208201111561071157600080fd5b8035906020019184600183028401116401000000008311171561073357600080fd5b91908080601f016020809104026020016040519081016040528093929190818152602001838380828437600081840152601f19601f8201169050808301925050505050505091929192908035906020019064010000000081111561079657600080fd5b8201836020820111156107a857600080fd5b803590602001918460018302840111640100000000831117156107ca57600080fd5b91908080601f016020809104026020016040519081016040528093929190818152602001838380828437600081840152601f19601f8201169050808301925050505050505091929192908035906020019064010000000081111561082d57600080fd5b82018360208201111561083f57600080fd5b8035906020019184600183028401116401000000008311171561086157600080fd5b91908080601f016020809104026020016040519081016040528093929190818152602001838380828437600081840152601f19601f820116905080830192505050505050509192919290803590602001906401000000008111156108c457600080fd5b8201836020820111156108d657600080fd5b803590602001918460018302840111640100000000831117156108f857600080fd5b91908080601f016020809104026020016040519081016040528093929190818152602001838380828437600081840152601f19601f820116905080830192505050505050509192919290505050611406565b005b61095461162e565b005b6109986004803603602081101561096c57600080fd5b81019080803573ffffffffffffffffffffffffffffffffffffffff169060200190929190505050611700565b6040518080602001828103825283818151815260200191508051906020019080838360005b838110156109d85780820151818401526020810190506109bd565b50505050905090810190601f168015610a055780820380516001836020036101000a031916815260200191505b509250505060405180910390f35b610a1b6117e4565b604051808273ffffffffffffffffffffffffffffffffffffffff1673ffffffffffffffffffffffffffffffffffffffff16815260200191505060405180910390f35b610a6561180d565b604051808215151515815260200191505060405180910390f35b610ac160048036036020811015610a9557600080fd5b81019080803573ffffffffffffffffffffffffffffffffffffffff169060200190929190505050611864565b005b610b0560048036036020811015610ad957600080fd5b81019080803573ffffffffffffffffffffffffffffffffffffffff1690602001909291905050506118d1565b005b610b4960048036036020811015610b1d57600080fd5b81019080803573ffffffffffffffffffffffffffffffffffffffff16906020019092919050505061193f565b005b6060600260008373ffffffffffffffffffffffffffffffffffffffff1673ffffffffffffffffffffffffffffffffffffffff1681526020019081526020016000206000018054600181600116156101000203166002900480601f016020809104026020016040519081016040528092919081815260200182805460018160011615610100020316600290048015610c235780601f10610bf857610100808354040283529160200191610c23565b820191906000526020600020905b815481529060010190602001808311610c0657829003601f168201915b50505050509050919050565b6060600260008373ffffffffffffffffffffffffffffffffffffffff1673ffffffffffffffffffffffffffffffffffffffff1681526020019081526020016000206004018054600181600116156101000203166002900480601f016020809104026020016040519081016040528092919081815260200182805460018160011615610100020316600290048015610d075780601f10610cdc57610100808354040283529160200191610d07565b820191906000526020600020905b815481529060010190602001808311610cea57829003601f168201915b50505050509050919050565b6060600260008373ffffffffffffffffffffffffffffffffffffffff1673ffffffffffffffffffffffffffffffffffffffff1681526020019081526020016000206002018054600181600116156101000203166002900480601f016020809104026020016040519081016040528092919081815260200182805460018160011615610100020316600290048015610deb5780601f10610dc057610100808354040283529160200191610deb565b820191906000526020600020905b815481529060010190602001808311610dce57829003601f168201915b50505050509050919050565b7f45cd33169b48a5f565cac8e41ffb5b5b3330736e38f68c4b57fb1435d48436ba33600260003373ffffffffffffffffffffffffffffffffffffffff1673ffffffffffffffffffffffffffffffffffffffff168152602001908152602001600020600001604051808373ffffffffffffffffffffffffffffffffffffffff1673ffffffffffffffffffffffffffffffffffffffff16815260200180602001828103825283818154600181600116156101000203166002900481526020019150805460018160011615610100020316600290048015610f165780601f10610eeb57610100808354040283529160200191610f16565b820191906000526020600020905b815481529060010190602001808311610ef957829003601f168201915b5050935050505060405180910390a1565b60016020528060005260406000206000915054906101000a900460ff1681565b6060600260008373ffffffffffffffffffffffffffffffffffffffff1673ffffffffffffffffffffffffffffffffffffffff1681526020019081526020016000206005018054600181600116156101000203166002900480601f01602080910402602001604051908101604052809291908181526020018280546001816001161561010002031660029004801561101f5780601f10610ff45761010080835404028352916020019161101f565b820191906000526020600020905b81548152906001019060200180831161100257829003601f168201915b50505050509050919050565b6060600260008373ffffffffffffffffffffffffffffffffffffffff1673ffffffffffffffffffffffffffffffffffffffff1681526020019081526020016000206001018054600181600116156101000203166002900480601f0160208091040260200160405190810160405280929190818152602001828054600181600116156101000203166002900480156111035780601f106110d857610100808354040283529160200191611103565b820191906000526020600020905b8154815290600101906020018083116110e657829003601f168201915b50505050509050919050565b6000600260008673ffffffffffffffffffffffffffffffffffffffff1673ffffffffffffffffffffffffffffffffffffffff168152602001908152602001600020905060008582600001604051602001808373ffffffffffffffffffffffffffffffffffffffff1673ffffffffffffffffffffffffffffffffffffffff166c01000000000000000000000000028152601401828054600181600116156101000203166002900480156111f85780601f106111d65761010080835404028352918201916111f8565b820191906000526020600020905b8154815290600101906020018083116111e4575b50509250505060405160208183030381529060405280519060200120905060606040805190810160405280601c81526020017f19457468657265756d205369676e6564204d6573736167653a0a3332000000008152509050600081836040516020018083805190602001908083835b60208310151561128c5780518252602082019150602081019050602083039250611267565b6001836020036101000a03801982511681845116808217855250505050505090500182815260200192505050604051602081830303815290604052805190602001209050600060018289898960405160008152602001604052604051808581526020018460ff1660ff1681526020018381526020018281526020019450505050506020604051602081039080840390855afa15801561132f573d6000803e3d6000fd5b505050602060405103519050600160008273ffffffffffffffffffffffffffffffffffffffff1673ffffffffffffffffffffffffffffffffffffffff16815260200190815260200160002060009054906101000a900460ff16151561139357600080fd5b846006018190806001815401808255809150509060018203906000526020600020016000909192909190916101000a81548173ffffffffffffffffffffffffffffffffffffffff021916908373ffffffffffffffffffffffffffffffffffffffff16021790555050505050505050505050565b6060611410611a58565b60e06040519081016040528089815260200188815260200187815260200186815260200185815260200184815260200183815250905080600260003373ffffffffffffffffffffffffffffffffffffffff1673ffffffffffffffffffffffffffffffffffffffff16815260200190815260200160002060008201518160000190805190602001906114a2929190611a96565b5060208201518160010190805190602001906114bf929190611a96565b5060408201518160020190805190602001906114dc929190611a96565b5060608201518160030190805190602001906114f9929190611a96565b506080820151816004019080519060200190611516929190611a96565b5060a0820151816005019080519060200190611533929190611a96565b5060c0820151816006019080519060200190611550929190611b16565b509050507f45cd33169b48a5f565cac8e41ffb5b5b3330736e38f68c4b57fb1435d48436ba3389604051808373ffffffffffffffffffffffffffffffffffffffff1673ffffffffffffffffffffffffffffffffffffffff16815260200180602001828103825283818151815260200191508051906020019080838360005b838110156115e95780820151818401526020810190506115ce565b50505050905090810190601f1680156116165780820380516001836020036101000a031916815260200191505b50935050505060405180910390a15050505050505050565b61163661180d565b151561164157600080fd5b600073ffffffffffffffffffffffffffffffffffffffff166000809054906101000a900473ffffffffffffffffffffffffffffffffffffffff1673ffffffffffffffffffffffffffffffffffffffff167f8be0079c531659141344cd1fd0a4f28419497f9722a3daafe3b4186f6b6457e060405160405180910390a360008060006101000a81548173ffffffffffffffffffffffffffffffffffffffff021916908373ffffffffffffffffffffffffffffffffffffffff160217905550565b6060600260008373ffffffffffffffffffffffffffffffffffffffff1673ffffffffffffffffffffffffffffffffffffffff1681526020019081526020016000206003018054600181600116156101000203166002900480601f0160208091040260200160405190810160405280929190818152602001828054600181600116156101000203166002900480156117d85780601f106117ad576101008083540402835291602001916117d8565b820191906000526020600020905b8154815290600101906020018083116117bb57829003601f168201915b50505050509050919050565b60008060009054906101000a900473ffffffffffffffffffffffffffffffffffffffff16905090565b60008060009054906101000a900473ffffffffffffffffffffffffffffffffffffffff1673ffffffffffffffffffffffffffffffffffffffff163373ffffffffffffffffffffffffffffffffffffffff1614905090565b61186c61180d565b151561187757600080fd5b60018060008373ffffffffffffffffffffffffffffffffffffffff1673ffffffffffffffffffffffffffffffffffffffff16815260200190815260200160002060006101000a81548160ff02191690831515021790555050565b6118d961180d565b15156118e457600080fd5b6000600160008373ffffffffffffffffffffffffffffffffffffffff1673ffffffffffffffffffffffffffffffffffffffff16815260200190815260200160002060006101000a81548160ff02191690831515021790555050565b61194761180d565b151561195257600080fd5b61195b8161195e565b50565b600073ffffffffffffffffffffffffffffffffffffffff168173ffffffffffffffffffffffffffffffffffffffff161415151561199a57600080fd5b8073ffffffffffffffffffffffffffffffffffffffff166000809054906101000a900473ffffffffffffffffffffffffffffffffffffffff1673ffffffffffffffffffffffffffffffffffffffff167f8be0079c531659141344cd1fd0a4f28419497f9722a3daafe3b4186f6b6457e060405160405180910390a3806000806101000a81548173ffffffffffffffffffffffffffffffffffffffff021916908373ffffffffffffffffffffffffffffffffffffffff16021790555050565b60e060405190810160405280606081526020016060815260200160608152602001606081526020016060815260200160608152602001606081525090565b828054600181600116156101000203166002900490600052602060002090601f016020900481019282601f10611ad757805160ff1916838001178555611b05565b82800160010185558215611b05579182015b82811115611b04578251825591602001919060010190611ae9565b5b509050611b129190611ba0565b5090565b828054828255906000526020600020908101928215611b8f579160200282015b82811115611b8e5782518260006101000a81548173ffffffffffffffffffffffffffffffffffffffff021916908373ffffffffffffffffffffffffffffffffffffffff16021790555091602001919060010190611b36565b5b509050611b9c9190611bc5565b5090565b611bc291905b80821115611bbe576000816000905550600101611ba6565b5090565b90565b611c0591905b80821115611c0157600081816101000a81549073ffffffffffffffffffffffffffffffffffffffff021916905550600101611bcb565b5090565b9056fea165627a7a72305820280d5de4890a00a56ad6a93e316656cc01f486d0ae57de0885f8c6a861117ae00029",
  "source": "pragma solidity ^0.5.4;\n\nimport {Ownable} from \"./Ownable.sol\";\n\n\ncontract Keybook is Ownable {\n\n    mapping(address => bool) public addressIsAVerifier;\n\n    struct User {\n        string email;\n        string name;\n        string phoneNumber;\n        string pgpKey;\n        string twitter;\n        string website;\n        address[] emailVerifiedByAddresses;\n    }\n\n    event NewEmailVerificationRequest(\n        address userAddress,\n        string email\n    );\n\n    mapping(address => User) addressToUser;\n\n\n    function requestEmailVerification() public {\n        emit NewEmailVerificationRequest(msg.sender, addressToUser[msg.sender].email);\n    }\n    function getEmailForUser(address userAddress) public view returns (string memory) {\n        return addressToUser[userAddress].email;\n    }\n    function getNameForUser(address userAddress) public view returns (string memory) {\n        return addressToUser[userAddress].name;\n    }\n    function getPhoneForUser(address userAddress) public view returns (string memory) {\n        return addressToUser[userAddress].phoneNumber;\n    }\n    function getPgpKeyForUser(address userAddress) public view returns (string memory) {\n        return addressToUser[userAddress].pgpKey;\n    }\n    function getTwitterForUser(address userAddress) public view returns (string memory) {\n        return addressToUser[userAddress].twitter;\n    }\n    function getWebsiteForUser(address userAddress) public view returns (string memory) {\n        return addressToUser[userAddress].website;\n    }\n\n    function makeUser(string memory email,\n                      string memory name,\n                      string memory phoneNumber,\n                      string memory pgpKey,\n                      string memory twitter,\n                      string memory website) public {\n        address[] memory dumArray;\n        User memory newUser = User(email, name, phoneNumber, pgpKey, twitter, website, dumArray);\n        addressToUser[msg.sender] = newUser;\n        emit NewEmailVerificationRequest(msg.sender, email);\n    }\n\n    function verifyEmail(address userAddress, uint8 v, bytes32 r, bytes32 s) public {\n        User storage verifyingUser = addressToUser[userAddress];\n\n        bytes32 dataToSign = keccak256(abi.encodePacked(userAddress, verifyingUser.email));\n        bytes memory prefix = \"\\x19Ethereum Signed Message:\\n32\";\n        bytes32 prefixedHash = keccak256(abi.encodePacked( prefix, dataToSign));\n        address verifier = ecrecover(prefixedHash, v, r, s);\n        require(addressIsAVerifier[verifier]);\n        verifyingUser.emailVerifiedByAddresses.push(verifier);\n    }\n\n    function addVerifier(address newVerifier) public onlyOwner {\n        addressIsAVerifier[newVerifier] = true;\n    }\n\n    function removeVerifier(address verifierToRemove) public onlyOwner {\n        addressIsAVerifier[verifierToRemove] = false;\n    }\n}\n",
  "sourcePath": "/home/raf/keybook/contracts/Keybook.sol",
  "compiler": {
    "name": "solc",
    "version": "0.5.4+commit.9549d8ff.Emscripten.clang"
  },
  "schemaVersion": "3.0.1",
  "updatedAt": "2019-02-16T12:59:28.574Z",
  "devdoc": {
    "methods": {}
  },
  "userdoc": {
    "methods": {}
  }
}